:100000000C94B4060C94EC060C94EC060C94EC06E0
:100010000C94EC060C94EC060C94EC060C94EC0698
:100020000C94EC060C94EC060C945F180C94D11D07
:100030000C94972C0C94EC060C94EC060C94EC06A7
:100040000C94EC060C94EC060C94EC060C94EC0668
:100050000C94EC060C9438190C94EC060C94EC06F9
:100060000C94EC060C94EC060C94EC060C94EC0648
:100070000C94EC060C94EC060C94EC060C94EC0638
:100080000C94EC060C94EC060C94EC060C94EC0628
:100090000C94EC060C94EC060C94EC060C94EC0618
:1000A0000C94EC060C94EC060C94EC060501090289
:1000B000A10185020901A100050919012905150001
:1000C00025019505750181029501750381010501E1
:1000D000093009311581257F950275088106093897
:1000E0001581257F950175088106050C0A380215D2
:1000F00081257F950175088106C0C005010980A191
:1001000001850319012AB700150126B7009501756D
:10011000108100C0050C0901A101850419012AA064
:1001200002150126A002950175108100C00660FF2E
:100130000961A1010962150026FF0095207508815B
:10014000020963150026FF00952075089102C0057D
:10015000010906A101050719E029E7150025019508
:1001600008750181029501750881010507190029AB
:10017000FF150026FF009506750881000508190186
:100180002905950575019102950175039101C0003E
:10019000000000000000000000000000000000005F
:1001A000000000000000000000000000000000004F
:1001B0000000007E0F00D4FFFFFFC70000007800A2
:1001C000000000000000002A2B28000000000000B2
:1001D0000000000000000000000029000000002CCA
:1001E0001E3420212224342627252E362D37382769
:1001F0001E1F202122232425263333362E37381F75
:100200000405060708090A0B0C0D0E0F1011121336
:100210001415161718191A1B1C1D2F3130232D35D4
:100220000405060708090A0B0C0D0E0F1011121316
:100230001415161718191A1B1C1D2F3130354C00B8
:10024000DA0281FFD9F1DB20A4A62EAF00A0C00006
:10025000A1C800AED580A81FD300408D142000FF98
:1002600001010109C9C1C1C9C9C1C1C9C9C1C1C946
:10027000C9C1C1C9C9C1C1C9C9C1C10909C14149AE
:10028000494141494941414143474F4F4F4F4F4FEA
:100290004F4F4FC70303C343434343434343434782
:1002A0004F4F4F4F4F4F4F4F4F4F4F4FCF0703C3FE
:1002B000434343434343434343434343434343470A
:1002C0004F4F4F4F4FCF0F0F0F0F0F0F0F0F09094A
:1002D00009090909090F0000000F0F0F0F00003F67
:1002E00000000000FFFFFFFFFFFFFF1F1F1F0303B2
:1002F00003FFFFFFFFFFFFFFFFFFFF0000FF000006
:10030000000000001C1C1C1C1C1CE0E0E0000000A5
:10031000000000FF0000FF0000000000001C1C1C8B
:100320001C1C1CE0E0E0000000000000FF0000FFDB
:100330000000000000000000E0E0FCFCFC00000009
:100340000000000000FF00000000000000000000AE
:100350000000C0800000000000000000000000005D
:1003600000000000FFFFFFFFFFFFFF3F3F3F0000D7
:10037000003F3F3FFFFFFFFFFFFFFF0000FF0000C8
:1003800000000000F8F8F8C7C7C7C7C7C7000000DB
:10039000000000FF0000FF000000000000C7C7C70A
:1003A000C7C7C7383838000000000000FF0000FF52
:1003B00000000000003F3F3F3838FFFFFF3838386B
:1003C0000000000000FF0000000000000000FFFE31
:1003D0000C183061C3860C183060C080000000002B
:1003E000000000001F1F1F1F1F1F1F1E1E1E1E1E9E
:1003F0001E1E1E1E1F1F1F1F1F1F1F00001F10106D
:1004000010101010111111111111111111101010E3
:100410001010101F00001F101010101010111111DB
:100420001111111010101010101010101F00001FCB
:100430001010101010101010101051515150505039
:1004400050505050505F4040404040404040434337
:1004500040404040404143464C58706143060CFFC9
:1004600001010109C94141494941414949414149C4
:1004700049414149494141494941C10909C14149AC
:10048000494141494941414143474F4F4F4F4F4FE8
:100490004F4F4FC70303C343434343434343434780
:1004A0004F4F4F4F4F4F4F4F4F4F4F4FCF0703C3FC
:1004B000C3C3C3C3C3C3C3C3C3C3C3C3C3C3C3C708
:1004C000CFCFCFCFCFCF0F0F0F0F0F0F0F0F0909C8
:1004D00009090909090F0000000F0F0F0F00003F65
:1004E00000000000FF000000000000E0E0E0FCFC75
:1004F000FC000000000000000000FF0000FF000002
:10050000000000001C1C1C1C1C1CE0E0E0000000A3
:10051000000000FF0000FF0000000000001C1C1C89
:100520001C1C1CE0E0E0000000000000FF0000FFD9
:10053000FFFFFFFFFFFFFFFF1F1F030303FFFFFF7F
:10054000FFFFFFFFFFFF00000000000000000000B1
:100550000000C0800000000000000000000000005B
:1005600000000000FF000000000000C0C0C0FFFF4E
:10057000FFC0C0C0000000000000FF0000FF00003E
:1005800000000000F8F8F8C7C7C7C7C7C7000000D9
:10059000000000FF0000FF000000000000C7C7C708
:1005A000C7C7C7383838000000000000FF0000FF50
:1005B000FFFFFFFFFFC0C0C0C7C7000000C7C7C71D
:1005C000FFFFFFFFFFFF0000000000000000FFFE34
:1005D0000C183061C3860C183060C0800000000029
:1005E000000000001F101010101010111111111137
:1005F000111111111010101010101F00001F1010F9
:1006000010101010111111111111111111101010E1
:100610001010101F00001F101010101010111111D9
:100620001111111010101010101010101F00001FC9
:100630001F1F1F1F1F1F1F1F1F1F5E5E5E5F5F5F4D
:100640005F5F5F5F5F5F40404040404040404343EA
:1006500040404040404143464C58706143060CFFC7
:1006600001010109C94141494941414949414149C2
:1006700049414149494141494941C10909C14149AA
:10068000494141494941414143474F4F4F4F4F4FE6
:100690004F4F4FC70303C3C3C3C3C3C3C3C3C3C7FE
:1006A000CFCFCFCFCFCFCFCFCFCFCFCFCF0703C3FA
:1006B0004343434343434343434343434343434706
:1006C0004F4F4F4F4FCF0F0F0F0F0F0F0F0F090946
:1006D00009090909090F0000000F0F0F0F00003F63
:1006E00000000000FF000000000000E0E0E0FCFC73
:1006F000FC000000000000000000FF0000FF000000
:10070000000000001C1C1C1C1C1CE0E0E0000000A1
:10071000000000FF0000FFFFFFFFFFFFFFE3E3E338
:10072000E3E3E31F1F1FFFFFFFFFFFFFFF0000FFCB
:100730000000000000000000E0E0FCFCFC00000005
:100740000000000000FF00000000000000000000AA
:100750000000C08000000000000000000000000059
:1007600000000000FF000000000000C0C0C0FFFF4C
:10077000FFC0C0C0000000000000FF0000FF00003C
:1007800000000000F8F8F8C7C7C7C7C7C7000000D7
:10079000000000FF0000FFFFFFFFFFFFFF383838B9
:1007A000383838C7C7C7FFFFFFFFFFFFFF0000FF54
:1007B00000000000003F3F3F3838FFFFFF38383867
:1007C0000000000000FF0000000000000000FFFE2D
:1007D0000C183061C3860C183060C0800000000027
:1007E000000000001F101010101010111111111135
:1007F000111111111010101010101F00001F1010F7
:1008000010101010111111111111111111101010DF
:100810001010101F00001F1F1F1F1F1F1F1E1E1E56
:100820001E1E1E1F1F1F1F1F1F1F1F1F1F00001F19
:100830001010101010101010101051515150505035
:1008400050505050505F4040404040404040434333
:1008500040404040404143464C58706143060CFFC5
:1008600001010109C94141494941414949414149C0
:1008700049414149494141494941C10909C1C1C9A8
:10088000C9C1C1C9C9C1C1C1C3C7CFCFCFCFCFCFE4
:10089000CFCFCFC70303C3434343434343434347FC
:1008A0004F4F4F4F4F4F4F4F4F4F4F4FCF0703C3F8
:1008B0004343434343434343434343434343434704
:1008C0004F4F4F4F4FCF0F0F0F0F0F0F0F0F090944
:1008D00009090909090F0000000F0F0F0F00003F61
:1008E00000000000FF000000000000E0E0E0FCFC71
:1008F000FC000000000000000000FF0000FFFFFF00
:10090000FFFFFFFFE3E3E3E3E3E31F1F1FFFFFFF3F
:10091000FFFFFFFF0000FF0000000000001C1C1C88
:100920001C1C1CE0E0E0000000000000FF0000FFD5
:100930000000000000000000E0E0FCFCFC00000003
:100940000000000000FF00000000000000000000A8
:100950000000C08000000000000000000000000057
:1009600000000000FF000000000000C0C0C0FFFF4A
:10097000FFC0C0C0000000000000FF0000FFFFFF3C
:10098000FFFFFFFF070707383838383838FFFFFF09
:10099000FFFFFFFF0000FF000000000000C7C7C707
:1009A000C7C7C7383838000000000000FF0000FF4C
:1009B00000000000003F3F3F3838FFFFFF38383865
:1009C0000000000000FF0000000000000000FFFE2B
:1009D0000C183061C3860C183060C0800000000025
:1009E000000000001F101010101010111111111133
:1009F000111111111010101010101F00001F1F1FD7
:100A00001F1F1F1F1E1E1E1E1E1E1E1E1E1F1F1FFF
:100A10001F1F1F1F00001F101010101010111111A8
:100A20001111111010101010101010101F00001FC5
:100A30001010101010101010101051515150505033
:100A400050505050505F4040404040404040434331
:100A500040404040404143464C58706143060CFDC5
:100A6000377A585A000004E6D6B44602002101162F
:100A7000000000742FE5A3E000C0007F5D003D880A
:100A800089C65436C3174FE4E4696322279B56FC9A
:100A9000C52BE37F8A598BA8297C3268BECDB3BEB3
:100AA000697E0A9B686794CE8879ED5D71A5888818
:100AB0003D0B57CBA45B426FB0F4834E0820EBC1D3
:100AC00030D66C143ABC404ECDEA508F19064FBF59
:100AD00038E89C627DAE8CCAD6308247BB55EC109C
:100AE000B6EABAB43CAD40798A6CB6D7D46AB1B034
:100AF0008C6F547EDA2FD132D39EF01D730000DB51
:100B0000DAE9E1008279B800019B01C1010000B976
:100B1000F8A746B1C467FB020000000004595A0060
:100B200000000001001600020001000400020005A0
:100B30000003000600040007000500080006000985
:100B40000007000A0008000B0009000C000A000D55
:100B5000000B000E000C000F000D0010000E001125
:100B6000000F001200100013001100140012001AF0
:100B70000013001B0014001C0015000001010101FE
:100B80000101010101020202020202020202030348
:100B90000303030303030404040404040405050518
:100BA00005050606060606070707070708080808DA
:100BB000090909090A0A0A0B0B0B0C0C0C0D0D0D87
:100BC0000E0E0E0F0F0F101011111112121313141D
:100BD00014151516161717181819191A1A1B1B1C95
:100BE0001D1D1E1E1F2020212222232424252626EF
:100BF000272829292A2B2C2D2D2E2F303132323324
:100C00003435363738393A3B3C3D3E3F404142432C
:100C10004445464748494A4C4D4E4F505153545510
:100C20005658595A5B5D5E5F616264656668696BC0
:100C30006C6D6F7072737577787A7B7D7E8082833E
:100C40008587888A8C8E8F91939596989A9C9EA082
:100C5000A2A3A5A7A9ABADAFB1B3B5B7BABCBEC08F
:100C6000C2C4C6C9CBCDCFD1D4D6D8DBDDDFE2E458
:100C7000E7E9EBEEF0F3F5F8FAFDFFC25CA800112E
:100C800050AC00AE00AB0052004B0012504A004E78
:100C9000004D00520052001350500051004F00C24E
:100CA0005CC95C1050C45CCA5CC35C00AF00AE0998
:100CB000025B00030100A0FA090400000103010126
:100CC00000092111010001224000070581030800ED
:100CD00001090401000203000000092111010001C3
:100CE00022220007058203200001070503032000DC
:100CF00001090402000103000000092111010001A3
:100D00002281000705840320000112010002000077
:100D10000008091228230502010203011C037600C2
:100D2000690061006C003A00660036003400630020
:100D300032006200330063000000120350006F00B5
:100D40006300680072007A0079006E0000001403EE
:100D50006D0061006B00730072006F006A00650037
:100D60006B0000000403090411241FBECFEFDAE07A
:100D7000DEBFCDBF04B603FE18C08091AC059091D4
:100D8000AD05A091AE05B091AF058730904BA7405F
:100D9000B04B59F41092AC051092AD051092AE050F
:100DA0001092AF05E0E0F8E3099511E0A0E0B1E0B2
:100DB000E0EFFDE602C005900D92A43AB107D9F725
:100DC00025E0A4EAB1E001C01D92AC3AB207E1F718
:100DD0000E94BE2C0C94BB360C940000CF93DF9382
:100DE0004091AA055091AB054A5A53409A013E5F83
:100DF00021303240C0F020E032E0241B350B6091FE
:100E0000A8037091A903FC01CA01240F351FC1E09A
:100E1000D0E08217930750F07093A9036093A80362
:100E2000DF91CF91089520E032E0E9CF4491DC01D9
:100E3000A655BC4F5C91451781F04C93AC01A5E0E1
:100E400056954795AA95E1F7DE0102C0AA0FBB1F90
:100E50004A95E2F7AD016A2B752B01963196D9CFF1
:100E6000E8EDF0E080818E7F80831092E2001092A6
:100E7000DA001092E100A0EEB0E08C9181608C93DA
:100E800080818F77808319BCA7EDB0E08C918E7F35
:100E90008C9380818F7E80831092820308952091AD
:100EA000E4003091E50095E6A9012091EC00822F45
:100EB000817020FF06C08091E80080FF06C080E0BE
:100EC00008952091E80022FD1AC080918F038823A5
:100ED00089F0853089F08091EB0085FD0FC020916D
:100EE000E4003091E50042175307F9F29150E1F622
:100EF00084E0089582E0089583E0089581E00895F4
:100F0000EF92FF920F931F93CF937C018B010E946E
:100F10004F07C82F811117C08091E80085FD0BC0D5
:100F20008091E8008E778093E8000E944F07882325
:100F300099F3C82F08C0F70181917F018093F100D8
:100F40000150110949F78C2FCF911F910F91FF90FC
:100F5000EF9008958091910387FF13C08091E8007E
:100F600082FF06C08091E8008B778093E80004C080
:100F700080918F038111F2CF089580918F03882390
:100F8000D9F38091E80080FFF8CF8091E8008E7758
:100F9000ECCF982F9093E900242F762F50E08917FB
:100FA00031F07091EC002091ED005091F00021FDA6
:100FB00007C09F5F973071F78093E90081E0089543
:100FC0003091EB003E7F3093EB003091ED003D7FA0
:100FD0003093ED003091EB0031603093EB00709373
:100FE000EC002093ED005093F0002091EE0027FDDF
:100FF000E0CF80E00895CF92DF92EF92FF920F93BF
:101000001F93CF93DF93C8EDD0E088818F7E8883D4
:10101000E7EDF0E080818160808384E082BF81E041
:101020008093820388818E7F888302EE10E0F8012E
:1010300010821092DA0081EEC82ED12CF6011082B7
:1010400088818F77888388818068888388818F7D75
:10105000888319BC10928F031092900310928E0314
:1010600010928D0390EEE92EF12CF70180818B7F99
:10107000808388818160888342E060E080E00E9414
:10108000C907F60180818E7F8083F80180818160AD
:101090008083808188608083F70180818E7F808358
:1010A000888180618883DF91CF911F910F91FF909C
:1010B000EF90DF90CF900895FC018091970390917D
:1010C000980386179707A0F06115710529F4909190
:1010D000E8009E779093E80090E06115710551F467
:1010E000911108C08091E80082FF34C080E008952B
:1010F000BC01F2CF80918F038823C1F18530C1F10B
:101100008091E80083FD30C08091E80082FDEACF45
:101110008091E80080FFE1CF8091F3002091F20000
:10112000382F6115710519F02830310558F091E01C
:101130002830310509F090E02091E8002E772093C7
:10114000E800CBCF81918093F100615071092F5F4E
:101150003F4FE7CF80918F03882341F0853041F0E6
:101160008091E80083FFBECF81E0089582E008957A
:1011700083E0089508958091840308952FB7F8942B
:1011800060917B0370917C0380917D0390917E033D
:101190002FBF08959C01FC0132969FEF80E04191A2
:1011A000461751F09F3F19F4411101C0982F8F5FEE
:1011B0008630A9F79F3F09F40895290F311D97FD47
:1011C0003A95F9016283089520917803309179036B
:1011D0002817390771F09093790380937803E09191
:1011E0007603F0917703309721F00084F185E02DAC
:1011F00009940895209174033091750328173907D5
:1012000071F09093750380937403E0917603F091ED
:101210007703309721F00680F781E02D0994089537
:10122000E0917603F0917703309721F00190F081FF
:10123000E02D099480E00895DC01609170038091B5
:101240007103962F891301C00895292F30E0F90109
:10125000EE0FFF1FE859FC4F408151814A175B0791
:10126000A1F487E08A9FA0018B9F500D1124405D5F
:101270005C4F81E0FA0184839613E6CF2F5F3F4FE6
:10128000237033272093700308952F5F3F4F922FD1
:101290009370D8CF1092CC021092CB02E0E3F3E02F
:1012A0008581811102C014821682379683E0E83668
:1012B000F807B1F70895FA01811101C0FB01099403
:1012C000E2E6F2E0818360834283339692E0E13785
:1012D000F907C1F70895FC01EE0FFF1FE80FF91F92
:1012E000EE59FD4F6183408322830895EEE9F3E0D8
:1012F000248130E1231B08F420E0248380916102E3
:101300008160809361020895EEE9F3E0248130E189
:10131000230F08F42FEF2483809161028160809372
:101320006102089590919E03937071F080939F03E2
:101330006093A003453608F044E64093A1038091F2
:101340006102822B809361020895EEE9F3E043810C
:1013500020E1421B08F440E0818121E0628190E0BD
:101360000C949209EEE9F3E0438120E1420F08F486
:101370004FEF818121E0628190E00C949209EEE9C7
:10138000F3E0628120E1621B08F460E0818121E0EA
:10139000438190E00C949209EEE9F3E0628120E150
:1013A000620F08F46FEF818121E0438190E00C949B
:1013B0009209EEE9F3E0818121E043816281885066
:1013C000990B0C949209EEE9F3E0818190E021E021
:1013D0004381628108960C94920990919E039370C8
:1013E00061F081110BC0946090939E0310921501DF
:1013F00080916102862B809361020895873110F0FD
:101400009865F2CF880F880F982BEECF80919E03BE
:1014100086958695815009F486E161E00C94ED098A
:1014200080919E03869586958F5F873108F081E0D5
:1014300061E00C94ED09E42FF0E0EE0FFF1FEC5695
:10144000FE4F9081921B97FD9195292F38E1239FA4
:10145000212D1124620F0895EF920F93972F23E00F
:10146000029FB0011124759567956E0D792F0F912C
:10147000EF900895322F50E0FA01EE0FFF1FE25770
:10148000FE4F9781905297FD9195440F551FFA0199
:10149000EC56FE4F2081231B330B290F311D97FD86
:1014A0003A95620F0895E42FF0E0EE0FFF1FE25728
:1014B000FE4F6781621B0895E42FF0E0EE0FFF1FDF
:1014C000EC56FE4F6081621B0895622F0895E42F51
:1014D000F0E0EE0FFF1FEC56FE4F408134EE439FCD
:1014E000412D1124E82FF0E050E0445E5F4FDA0117
:1014F000A21BB1099D01B7FF03C0319521953109A8
:1015000093E0220F331F9A95E1F7AF01421B530B73
:101510009A0157FD20E0582F259F212D1124822F5D
:101520000895E42FF0E0EE0FFF1FEC56FE4F4081D0
:1015300034EE439F412D1124E72FF0E050E0445E4C
:101540005F4FDA01A21BB1099D01B7FF03C03195BE
:101550002195310993E0220F331F9A95E1F7AF01EE
:10156000421B530B9A0157FD20E0279F212D112488
:10157000722F08950C9460090C946B09FC019B0177
:10158000009729F480E077FF2BC080E80895AC0134
:1015900097FF04C044275527481B590BB901640F16
:1015A000751F37FD10C0241B350BC901A5E0880F3E
:1015B000991FAA95E1F70E94133680E2861BF7FF78
:1015C0000FC081950895CB0165E0880F991F6A953A
:1015D000E1F7BA01621B730B0E94133680E6EECF6F
:1015E0000895EF920F93CF93DF93D72FC82FC901A0
:1015F0000E19BA010E94BE0A602F681B7D2F8C2F26
:10160000DF91CF910F91EF9008950F93CF93DF93D8
:10161000D72FC82FC901BA010E94BE0A682F600FD8
:101620007D2F8C2FDF91CF910F910895EF920F9323
:101630001F93CF93DF93D62FC72F182FC9010E19F1
:10164000010FBA010E94BE0A081B202F219F212DE5
:101650001124822F6D2F7C2FDF91CF911F910F913D
:10166000EF900895EF920F931F93CF93DF93D62FB0
:10167000172FC82FC9010E19070FBA010E94BE0A01
:10168000702F781B719F712D11246D2F8C2FDF917E
:10169000CF911F910F91EF9008950F931F93CF93C8
:1016A000DF93D62FC72F182FC901212F201B022F00
:1016B000BA010E94BE0A982F990F990F891B800FBB
:1016C000282F219F212D1124822F6D2F7C2FDF9118
:1016D000CF911F910F9108950F931F93CF93DF9395
:1016E000D62F172FC82FC901272F201B022FBA0171
:1016F0000E94BE0A982F990F990F782F791B700FAF
:10170000719F712D11246D2F8C2FDF91CF911F911F
:101710000F910895E82F86FDE0952E2F2F7086FDFE
:101720002F5FE695E695E695E670F0E0E958FE4F06
:101730009181929F902D212D112492959F70229539
:10174000207F922B2081920F87FD919580E8890F51
:1017500008950F931F93CF93DF938B01D82FC42F3E
:10176000822F0E948A0BEC2FF0E0EE0FFF1FEC5649
:10177000FE4F90819058890F87FD8195880F682FC3
:101780002CE0629F612D1124600F712F8D2FDF914E
:10179000CF911F910F910895AC018230910508F40B
:1017A00008959FEF413E8EE1580740F49A0195E07D
:1017B000369527959A95E1F798E0920F61E0E62F2C
:1017C000E90FFF27FF1F9F0135952795822F229F45
:1017D000F001239FF00DF00D11244E175F0738F430
:1017E0009FEF920F961758F78FEF860F08952F3FB0
:1017F000E9F361E0620FF6CF0F93CF93DF93D72F1A
:10180000C82F47FD419588E390E0841B910947FD6F
:101810009395889FB001899F700D700D1124229FB0
:10182000C001239F900D900D1124860F971F0E94D9
:10183000CC0B982F990F890F682F600F7D2F8C2F5D
:10184000DF91CF910F91089530E020E0869F212D08
:10185000969F200D311D1124C9010895AF92BF92AA
:10186000CF92DF92FF920F931F93CF93DF93362F88
:10187000472FE82FF0E0E558F44F71110FC0E491C5
:101880008E2F2E2F6E2F722FDF91CF911F910F91E0
:10189000FF90DF90CF90BF90AF900895C72FD0E01A
:1018A0002491F22E022F10E056E0659FC001112412
:1018B000EFEFF0E0BF010E94FF35832F90E0880F2B
:1018C000991F35E5369FD001379FB00D11248A1B33
:1018D0009B0B982F990F980F6F01CC1ADD0AC09EB1
:1018E000D001C19EB00DD09EB00D11248B2F499F09
:1018F000A0011124452F55276F01C41AD50AC09E97
:10190000A001C19E500DD09E500D11245F01A91A57
:10191000B108AC9E6001AD9ED00CBC9ED00C1124D1
:10192000CD2CDD24EC19FD09E09FE001E19FD00DF5
:10193000F09FD00D1124ED2F62307105A1F050F40D
:101940006115710509F49ECF6130710581F0EB2FAF
:10195000852F98CF6430710569F080F0663071058D
:1019600009F490CFF4CFE22F2B2F8D2F8BCFE22FC6
:10197000252F88CFEB2F822F2D2F84CF2B2F8F2D2C
:10198000E52F80CFDF92EF92FF920F931F93CF93BB
:10199000DF937C01C0911A0111E01C0F012F16305A
:1019A00008F005E06091A2036695669521E0620F5C
:1019B00008F46FEF80919A0390919B030E94240C8E
:1019C000D82ED0E0C01760F081E0153008F080E03C
:1019D000DF91CF911F910F91FF90EF90DF900895CD
:1019E000FE01E257FE4F808990911B01892391F0FF
:1019F00060919F037091A0038091A1032D2D4C2F26
:101A0000F70109950E942E0C462F282F672FCE0133
:101A10000E94BC0A2196D6CF5F926F927F928F92DE
:101A20009F92AF92BF92CF92DF92EF92FF920F936D
:101A30001F93CF93DF933C01C0911A0111E01C0F5B
:101A4000F12E163010F035E0F32E6091A20366956A
:101A500080919A0390919B030E94240C582ED0E011
:101A6000CE01880F991F9C0122573E4F6901CF1567
:101A7000A0F081E0153008F080E0DF91CF911F9158
:101A80000F91FF90EF90DF90CF90BF90AF909F901D
:101A90008F907F906F905F900895FE01E257FE4F08
:101AA000808990911B01892379F1F6018681282F85
:101AB0002057330B59018781E82FE052FF0B4F016C
:101AC000AA9C9001AB9C300D300D1124EE9FC001FB
:101AD000EF9F900D900D1124820F931F0E94CC0B4D
:101AE000082F60919F037091A0038091A103E52CC2
:101AF0009401A501F30109950E942E0C462F282F71
:101B0000672FCE010E94BC0AF2E0CF0ED11C2196B5
:101B1000AECFAF92BF92CF92DF92EF92FF920F9330
:101B20001F93CF93DF936C01C0911A0111E01C0F3A
:101B3000B12E163010F035E0B32E6091A2036695F9
:101B400080919A0390919B030E94240CA82ED0E0D0
:101B5000CE01880F991F9C0122573E4F7901CB156A
:101B600078F081E0153008F080E0DF91CF911F918F
:101B70000F91FF90EF90DF90CF90BF90AF900895BE
:101B8000FE01E257FE4F808990911B018923C1F02D
:101B9000F70127812052330B46814057550B609146
:101BA0009F037091A0038091A1030A2DF60109956E
:101BB0000E942E0C462F282F672FCE010E94BC0AB0
:101BC000F2E0EF0EF11C2196CACF90914A02803FBD
:101BD00059F480914B0287FF0DC010924B02911176
:101BE0000BC01092420208C0813F81F480914B02E9
:101BF00018169CF3992381F080914C0290914D022C
:101C0000892B09F064C0109241020895823F49F483
:101C100097FFF0CF10924A0280914B028111ECCFD6
:101C2000E0CF833F19F41916ACF3E4CF20914C02B6
:101C3000893F29F41216F4F610924C02DBCF8A3F4A
:101C400019F427FFD7CFF8CF20914D028B3F29F40D
:101C500027FFD0CF10924D02CDCF8C3F19F4121632
:101C6000CCF3C8CF843F31F4809149028E7F8093BA
:101C70004902C0CF853F21F4809149028D7FF7CF83
:101C8000863F21F4809149028B7FF1CF873F21F479
:101C900080914902877FEBCF883F21F480914902F0
:101CA0008F7EE5CF8D3F31F4809143028E7F80930C
:101CB0004302A0CF8E3F21F4809143028D7FF7CF66
:101CC0008F3F09F097CF809143028B7FF0CF08952B
:101CD0008091430280FD16C081FD16C082FD16C0B2
:101CE000809141028823A1F0883280F428E0829F0D
:101CF000C001112468E270E00E941336862F672B22
:101D000039F0089582E0089584E0089588E0089508
:101D100081E008958091430280FD14C081FD14C0CC
:101D200082FD16C080914202882381F08E3180F4BA
:101D300020E5829FC00111246EE170E00E941336FD
:101D4000862F089584E1089588E2089588E0089533
:101D500080E50895803F31F40E948A0E819580933A
:101D60004B020895813F19F40E948A0EF8CF823FFA
:101D700031F40E948A0E819580934A020895833F30
:101D800019F40E948A0EF8CF893F29F40E94680E48
:101D900080934C0208958A3F21F40E94680E819539
:101DA000F7CF8B3F31F40E94680E819580934D02EE
:101DB00008958C3F19F40E94680EF8CF843F31F4E7
:101DC000809149028160809349020895853F21F402
:101DD000809149028260F7CF863F21F480914902C9
:101DE0008460F1CF873F21F4809149028860EBCF76
:101DF000883F21F4809149028061E5CF8D3F31F425
:101E00008091430281608093430208958E3F21F4C4
:101E1000809143028260F7CF8F3FB9F780914302F0
:101E20008460F1CF80E008959091110292FF06C086
:101E3000282F28712830F9F4877F846093FF06C02B
:101E4000282F28712831F1F4877E846120911202B5
:101E500020FF06C0382F38713830D9F4877F816071
:101E600021FF06C0282F28712831D1F4877E816197
:101E700094FD877E0895282F24712430F9F68B7FF6
:101E80008860DCCF282F2471243101F78B7E886194
:101E9000DDCF382F3171313019F78E7F8860E0CF78
:101EA000282F2171213121F78E7E8861E1CFCF93D8
:101EB000DF93EC0182389105A9F1D8F581339105C2
:101EC00009F496C048F58932910509F48AC08A97C9
:101ED00009F495C0C11521E5D20708F0BCC0C115B1
:101EE00030E5D30708F014C1C83ED10508F09CC006
:101EF000C03ED10560F5C83AD10508F087C0C53AA3
:101F0000D10508F0FDC0C130D10509F12097F9F0E5
:101F1000C430D105E0F440C08533910509F45AC0BE
:101F2000C997C1F680911102837089F0C0EED0E0AC
:101F30000EC0833E910599F170F4803E910501F148
:101F4000823E910539F68091110282FD21C0CE01B9
:101F5000DF91CF910895863E910561F1873E91050D
:101F600071F1843E910509F0B5CF8091120281FF95
:101F7000EECF80911102C7EED0E084FD0DC0E7CF17
:101F80008091110280FD12C19091120290FFDFCF6B
:101F9000C3EED0E084FFDBCFD0E0C0E0D8CF8091AB
:101FA000110282FD06C19091120290FDBFCF84FF05
:101FB000CECFF2CF8091110283FDDDCFC8CF8091CB
:101FC000110283FDF9C09091120291FFF0CFC4EE8F
:101FD000D0E0BDCF8091110285FFB9CFC9E2D0E03A
:101FE000B6CF8091110285FFB2CFC5E3D0E0AFCF6D
:101FF0008091110286FFABCFCAE2D0E0A8CF8091DA
:10200000110286FFA4CFC1E3D0E0A1CFCF3BD10521
:1020100018F6C85AD0E0CC0FDD1FC55DDE4F099021
:10202000D881C02DD46493CFC11540E2D40758F4B1
:10203000C11581E0D80708F08ACFC03FD10508F468
:10204000ABCFD06584CFC11590E4D90708F4A4CFF5
:10205000DF70D06A7CCFC11525E5D20700F5C11528
:1020600034E5D30708F08AC0C11543E5D40708F06A
:1020700071C0C11582E5D80708F467C0CE0183702E
:10208000992721E030E002C0220F331F8A95E2F742
:10209000C695C69580E2C89FE001112452C0C115C3
:1020A00099E5D907A8F4C11528E5D20708F06BC057
:1020B000C11536E5D30708F06FCF8C2F0E94140F9F
:1020C000C82FD0E0DC2FCC27CC27DF71D0623FCFE8
:1020D000C1154AE5D40708F45BC0CE0190568115BE
:1020E000904208F059CF8D2F8F710E94140F90E00D
:1020F000982F882788279F719C012C2BE901E6CF18
:10210000C55AD0E0C85DDE4FC881D0E0D0641FCF93
:10211000CE01E4E096958795EA95E1F783702C2F40
:1021200026952695237040E2249F90011124382B98
:102130008C2F8370C1E0D0E002C0CC0FDD1F8A95E8
:10214000E2F7C22BD32BDC6802CFDC2FCC27C16F88
:10215000D06AFDCECE018370992721E030E002C025
:10216000220F331F8A95E2F7C695C69590E2C99F64
:10217000E0011124C22BD32BDA68E9CEDC2FCC2767
:10218000C46FD06AE4CEDC2FCC27C06FD06ADFCE1C
:102190008C2F8F700E94140F34E0D695C7953A9516
:1021A000E1F7CF709C2FEC01D069D1CEC9E3D0E02C
:1021B000CECEC2EED0E0CBCEC6EED0E0C8CE80917F
:1021C0000B02882331F010920B0210920A02109237
:1021D000090208958095909108029823909308022F
:1021E00008951092FF011092FE011092FD010895D2
:1021F0008091FC0181111092FC0108958091FB01F6
:102200009091BA01981301C008958F5F8770FACF3B
:102210009E3F49F1292F220FE22FE90FE80F9E2F51
:102220009770E695E695E69583E0E89FF001112426
:10223000E155FE4F50E040E080E0219130E0092E72
:1022400002C0369527950A94E2F721703327042EB1
:1022500001C0220F0A94EAF7822B4F5F5F4F433091
:10226000510559F7089580E008959E3F69F1292F9F
:10227000220FE22FE90FE80F8E2F877041E001C097
:10228000440F8A95EAF7E695E695E69583E0E89FA0
:10229000F0011124E155FE4F30E020E070E0519153
:1022A000DF011197CB01022E02C0969587950A9403
:1022B000E2F7817081958527842385278C932F5F92
:1022C0003F4F2330310559F70895982F92959F700D
:1022D00011F0892F94E0282F2695269511F09E5F06
:1022E000822F869509F09F5F892F08959C013A956A
:1022F00021153F4150F5FC01EE27F170BC01662726
:102300007270AC01442754709C012227387094FFEE
:102310000EC080E1EF2B09F480E0672B09F08062AA
:10232000452B09F08064232B89F08068089581E0B3
:10233000EF2B09F480E0672B09F08260452B09F050
:102340008460232B19F08860089580E00895CF926F
:10235000DF92EF92FF920F931F93CF93DF936C0165
:102360007B0164E670E088E70E94FE34EC0197FD93
:1023700012C010E000E0F601E00FF11F849164E666
:1023800070E00E947835EC01892B29F40F5F1F4F14
:102390000E151F0581F70E94FB35CE01DF91CF910D
:1023A0001F910F91FF90EF90DF90CF900895809153
:1023B000C9029091CA02911103C091E08927089542
:1023C000882369F062E070E08DEA9CE00E94A7112A
:1023D000892B19F08091C90208951092C902809149
:1023E000C902EBCFCF93C091C9028091CA02882362
:1023F000D1F00E94BE08605A75418F4F9F4F609385
:10240000C5027093C6028093C7029093C802C1119F
:1024100008C062E070E08BEA9CE00E94A711892B63
:1024200029F0C091C9028C2FCF91089581E080934B
:10243000C902F7CF80937F03709381036093800379
:1024400080918F038430F9F48093E9008FEF9091AD
:10245000E800815095FD06C095ED9A95F1F70000D2
:102460008111F5CF8091E80085FF0DC050E040E07C
:1024700063E070E08FE793E00E9480078091E800BE
:102480008E778093E8000895BC0184E00C941A12C2
:10249000BC0183E00C941A129C0184E08093E90053
:1024A0009FEF8091E800915085FD06C085ED8A95EB
:1024B000F1F700009111F5CF8091E80085FF0CC085
:1024C00050E040E066E070E0C9010E948007809122
:1024D000E8008E778093E8000895CF93DF93EC01B6
:1024E00081E08093E9008FEF9091E800815095FDA5
:1024F00006C095ED9A95F1F700008111F5CF809116
:10250000E80085FF14C050E040E068E070E0CE01D4
:102510000E9480078091E8008E778093E80088E031
:10252000FE01A5E8B3E001900D928A95E1F7DF91F5
:10253000CF91089581E08093E00080E28093D800FD
:102540001092C9008FE19EE40197F1F700C00000EE
:1025500087E090EBDC018093AC059093AD05A093F0
:10256000AE05B093AF0588E19CE00FB6F894A8954E
:10257000809360000FBE90936000FFCF869A31B3C6
:102580003F7B21B320644FB7F89482E692E0FC01D0
:102590005191CF0168E021BB000000C057FF31BB63
:1025A000550F000000C000C000C031BB00C06A95DC
:1025B00091F7F2E081379F0751F74FBF8FE594E025
:1025C0000197F1F700C000000895CF93DF93C7EBA8
:1025D000D0E060E0CE010E947F362196C11584E0F4
:1025E000D807B9F7DF91CF9108950F931F93CF9339
:1025F000DF938901843028F5611123C0423008F54A
:1026000021153C4531F42091160130911701232BFF
:10261000C1F094E0899FE001112450E0440F551F60
:10262000C40FD51FC95ADF4F612FCE010E947F36DC
:10263000602FCE010196DF91CF911F910F910C94E5
:102640007F36DF91CF911F910F9108950F931F93C4
:10265000CF93DF938901843048F5623038F54330F9
:1026600028F521153C4531F42091160130911701D0
:10267000232BE1F0C42FD0E0CC0FDD1F96E0699F43
:10268000C00DD11D11249CE0899FC00DD11D1124C6
:10269000612FCE0187960E947F36602FCE018896EB
:1026A000DF91CF911F910F910C947F36DF91CF91E5
:1026B0001F910F910895CF93C82F6FEF811165E39C
:1026C00083E290E00E947F366FEFC1116EE184E2F9
:1026D00090E00E947F366FEFC1116FE585E290E0D8
:1026E000CF910C947F36AF92BF92CF92DF92EF9250
:1026F000FF920F931F93CF93DF93CDB7DEB72A9747
:102700000FB6F894DEBF0FBECDBFC0901601D090BB
:10271000170181E090E090931701809316018BE7F9
:10272000E82E8CE0F82E10E0570100E0F50125912D
:102730003491402F60E0812F0E94261392E0A90E71
:10274000B11C0F5F033091F75701E6E0AE0EB11CEC
:1027500000E0F50125913491402F61E0812F0E9426
:102760002613F2E0AF0EB11C0F5F033091F721E0AA
:1027700030E040E060E0812F0E94F51221E030E07F
:1027800041E060E0812F0E94F5121F5F8CE0E80EAF
:10279000F11C143049F6CE0101967C018AE0F70164
:1027A00011928A95E9F707E610E04AE050E0B80197
:1027B000C7010E94A336065F1F4F073B1105A9F70B
:1027C000D0921701C09216012A960FB6F894DEBF78
:1027D0000FBECDBFDF91CF911F910F91FF90EF9072
:1027E000DF90CF90BF90AF90089580E00E945B1380
:1027F00060E086E290E00E947F360E9473130E94A0
:10280000E51281E00C945B130F931F93CF93DF933A
:10281000843000F561111EC024E0829F80011124E4
:1028200050E0440F551F040F151F095A1F4FC801D0
:102830000E946136C82FD0E0DC2FCC27C80101965A
:102840000E9461369E01282BC901DF91CF911F9113
:102850000F91089590E080E0F8CF0F931F93CF93EE
:10286000DF93843030F5623020F5433010F5C42F0B
:10287000D0E0CC0FDD1F26E0629FC00DD11D1124DA
:102880003CE0839FC00DD11D1124CE0187960E948C
:102890006136082F10E0102F0027CE0188960E9485
:1028A00061369801282BC901DF91CF911F910F91BB
:1028B000089590E080E0F8CF462F2091C302309138
:1028C000C402232B91F47E3F39F46E3F71F4809162
:1028D000C1029091C2020895843038F4723028F415
:1028E000633018F4672F0C942D1490E080E0089565
:1028F000CF92DF92FF920F931F93CF93DF936C01E0
:102900000091A40380919903082BC7E0D0E010E068
:10291000FC2EC8010C2E02C0959587950A94E2F70B
:1029200080FD0CC02197A0F7F12C8F2DDF91CF9166
:102930001F910F91FF90DF90CF900895B6018C2FDB
:102940000E945C140E94570F019761F3EECFCF9362
:10295000DF93EC010E947814BE010E945C14DF91A9
:10296000CF910C94570FFC0186819781009791F0CD
:102970000E94570F92959F709630B9F080F4925F45
:102980009F70923080F4803F19F058F4883E58F4DC
:1029900081E00895808191810E94A714EBCF9A5F16
:1029A000EFCF843FA9F380E00895883E88F3813F0C
:1029B000D1F7EECF1F93CF93DF9300D000D00F92CB
:1029C000CDB7DEB7FC01268137812115310541F5F0
:1029D00025E0DE01119601900D922A95E1F7FC01A8
:1029E000228189819A812223B9F06623A9F00E946D
:1029F0007814182F682F89819A810E943511698176
:102A00007A81812F0F900F900F900F900F90DF9190
:102A1000CF911F910C945C140E940811182FEFCFD6
:102A2000C9010F900F900F900F900F90DF91CF91F1
:102A30001F91089583E290E00E946136853389F406
:102A400084E290E00E9461368E3159F485E290E094
:102A50000E94613691E08F3509F090E0892F8170F6
:102A6000089580E0FCCFCF9384E090E00E9461362F
:102A7000C82F82E290E00E946136982F8C2FCF9170
:102A80000895CF92DF92EF92FF920F931F93CF930F
:102A9000DF93CDB7DEB72A970FB6F894DEBF0FBE2F
:102AA000CDBFE1E7F2E080E5DF011D928A95E9F70D
:102AB000E0E3F3E088E3DF011D928A95E9F781E71F
:102AC000C82E82E0D82E7F0107E610E0F701D18200
:102AD000C0824AE050E0B801CE0101960E94513612
:102AE00088E0FE013196D60101900D928A95E1F7BA
:102AF00089859A85D70113969C938E931297BAE095
:102B0000CB0ED11CE7E0EE0EF11C065F1F4F073B1A
:102B10001105E1F62A960FB6F894DEBF0FBECDBFC1
:102B2000DF91CF911F910F91FF90EF90DF90CF90A9
:102B3000089546E050E06CE170E08EE993E00E9479
:102B40006F36109261020895CF92DF92EF92FF925A
:102B50000F931F93CF93DF930E94BE0860934E02A2
:102B600070934F02809350029093510230919E03D4
:102B7000132F137019F0132F169516952091150128
:102B80002130F9F0222379F0223009F4E3C1233017
:102B900009F4E9C1DF91CF911F910F91FF90EF9060
:102BA000DF90CF90089510921A0160939A0370936A
:102BB0009B0380939C0390939D0381E08093150178
:102BC000E9CF9091140181E019130BC0832F83701A
:102BD0002091130130E091E08217130609F490E090
:102BE000892F817080931C018091A30390911B0118
:102BF000981739F080931B0140E060E080E00E946C
:102C0000BA0A173180F4E12FF0E0E354F94C0C9448
:102C1000273680911C01882309F4F9C040E060E068
:102C200080E00E94BA0A80E0F2C0C0911A0101E07F
:102C30000C0FF02E063010F0A5E0FA2E60919F03E5
:102C40007091A0038091A1030E942E0CE62ED72E36
:102C5000C82ED0E0CF1528F081E0053008F4D7C0A9
:102C6000E2CFFE01E257FE4F808990911B0189233C
:102C700031F02C2D4E2D6D2DCE010E94BC0A2196D7
:102C8000E9CFC0911A0101E00C0FE02E063010F0E0
:102C9000F5E0EF2ED090A003C090A1032091A203F5
:102CA000E0E4FE2E3F2D329F312D1124F32ED0E093
:102CB000CE1590F6FE01E257FE4F808990911B01E0
:102CC0008923B9F0FE01EE0FFF1FE257FE4F878107
:102CD00082958F7060919F038F9D600D11247D2DD3
:102CE0008C2D0E942E0C462F282F672FCE010E947C
:102CF000BC0A2196DDCFC0911A0101E00C0FE02E35
:102D0000063010F065E0E62ED090A003C090A1033D
:102D10002091A20350E4F52E3F2D329F312D112436
:102D2000F32ED0E0CE1508F097CFFE01E257FE4F0C
:102D3000808990911B018923D9F0FE01EE0FFF1FBE
:102D4000E257FE4F6681F69EB001112445E075956D
:102D500067954A95E1F780919F03680F7D2D8C2D33
:102D60000E942E0C462F282F672FCE010E94BC0AEE
:102D70002196D8CFC0911A0101E00C0FF02E063039
:102D800010F025E0F22EE0909F03D091A003D090A8
:102D9000A1036091A20366956695669580919A035A
:102DA00090919B030E94240C0E948A0B805887FDFF
:102DB0008195880F282F3D2D239F212D1124822FAF
:102DC0006E2D7D2F0E942E0CE62ED72EC82ED0E021
:102DD000CF1508F041CFFE01E257FE4F8089909158
:102DE0001B01892331F02C2D4E2D6D2DCE010E941B
:102DF000BC0A2196EDCF81E99AE00E94C20C07C07F
:102E000087E69AE0FACF8CE69BE00E94890D9091CC
:102E10001A019F5F90931A018111BCCE82E08093CA
:102E2000150180911C018111B5CE1111B3CE83E043
:102E3000C5CE8DE49BE0E9CF82E39BE00E940C0DC0
:102E4000E6CF86E19BE0FACF85E69AE0D6CF8CE527
:102E50009AE0D3CF83E59AE0D0CF8AE39AE0CDCF52
:102E60008CE29AE0EBCF8CEF9BE0CFCF85E09BE04C
:102E7000CCCF81EF9AE0E2CFC0911A0101E00C0FB4
:102E8000F02E063010F095E0F92ED090A003E090DF
:102E9000A103D0919F036091A20366956695669504
:102EA00080919A0390919B030E94240C0E948A0BAC
:102EB000805887FD8195880F682F2CE0629F612DD7
:102EC00011246D0F7D2D8E2D0E942E0CE62ED72EF7
:102ED000C82ED0E0CF1508F0BFCEFE01E257FE4F5E
:102EE000808990911B01892331F02C2D4E2D6D2D61
:102EF000CE010E94BC0A2196EDCF89EA9BE07DCFEE
:102F00008BE19AE07ACFC0911A01FF24F394FC0E72
:102F10000F2D25E02F1508F405E0D0E0C01730F0A4
:102F200081E094E09F1508F072CF7DCEFE01EE0F98
:102F3000FF1FEC0FFD1FEE5AFD4F608171818281F2
:102F40000E942E0C462F282F672FCE010E94BC0A0C
:102F50002196E4CF10931401832F83708093130183
:102F60000E94BE1264CF8091610281110E94991566
:102F700040919A0350919B0360919C0370919D0333
:102F80002FB7F89480917B0390917C03A0917D03EF
:102F9000B0917E032FBF841B950BA60BB70B4097F8
:102FA000A105B10508F4F6CD10921501F3CDEEE9B7
:102FB000F3E081E3808380911D0190911E01A09137
:102FC0001F0181839283A3838FE784838FEF85839F
:102FD0000C94991590E080E00E946936893E9E4FDE
:102FE00011F40C941A1580E0089569EE7EEF90E0DC
:102FF00080E00E949D3660E082E090E00E947F3693
:1030000060E083E090E00E947F361092990360E0D8
:1030100084E090E00E947F3660E082E290E00E94CF
:103020007F3660E085E090E00E947F3660E086E0D9
:1030300090E00E947F366FEF87E090E00E947F363D
:1030400040E050E0BA0188E090E00E94913660E0F4
:103050008DE090E00E947F3640E050E0BA0188E1C8
:1030600090E00E94913660E087E190E00E947F3618
:1030700040E050E0BA018CE190E00E94913670E0AF
:1030800060E080E290E00E949D3640E050E0BA01AE
:1030900088E190E00E94913680E00E945B130E94DC
:1030A000F51340E050E0BA018FE090E00E949136C5
:1030B00040E050E0BA0183E190E00C9491361F9219
:1030C0000F920FB60F9211242F933F934F935F935C
:1030D0006F937F938F939F93AF93BF93EF93FF93E0
:1030E0008091E10082FF09C08091E20082FF05C06B
:1030F0008091E1008B7F8093E1008091DA0080FF76
:1031000024C08091D80080FF20C08091DA008E7F9B
:103110008093DA008091D90080FF9DC080E189BD55
:1031200082E189BD09B400FEFDCF81E080938F0369
:1031300080918203811109C00E9430070E94FB0721
:103140008091E20084608093E2008091E10080FF42
:1031500017C08091E20080FF13C08091E2008E7F53
:103160008093E2008091E20080618093E200809190
:10317000D80080628093D80019BC85E080938F03CB
:103180008091E10084FF2BC08091E20084FF27C082
:1031900080E189BD82E189BD89B5982F917080FF5A
:1031A000FBCF8091D8008F7D8093D8008091E10083
:1031B0008F7E8093E1008091E2008F7E8093E20019
:1031C0008091E20081608093E200809190038823E7
:1031D00009F447C084E080938F0380918F0380912E
:1031E000E10083FF27C08091E20083FF23C080912C
:1031F000E100877F8093E10082E080938F0310924B
:1032000090038091E1008E7F8093E1008091E20045
:103210008E7F8093E2008091E20080618093E200E3
:1032200042E060E080E00E94C9078091F000886081
:103230008093F000FF91EF91BF91AF919F918F919B
:103240007F916F915F914F913F912F910F900FBEA2
:103250000F901F90189519BC10928F031092820343
:1032600074CF8091E30087FD93E090938F03B5CFF7
:1032700078941F921FB61F9211248F939F93AF9340
:10328000BF9380917B0390917C03A0917D03B091CB
:103290007E030196A11DB11D80937B0390937C0357
:1032A000A0937D03B0937E03BF91AF919F918F91C7
:1032B0001F901FBE1F9018959C014FB7F8948091E6
:1032C0007B0390917C03A0917D03B0917E034FBF5F
:1032D000821B930B08952FB7F89480917B039091F4
:1032E0007C03A0917D03B0917E032FBF08950E94BF
:1032F0006B199C0190914A0280914B02982B21F00E
:10330000309347022093460290914C0280914D02E7
:10331000982B21F03093450220934402E0917603EC
:10332000F0917703309749F082E08093480204805F
:10333000F581E02D88E492E0099408951F93CF93DE
:10334000DF9300D0CDB7DEB76CE571E0E9E5F1E0E1
:1033500041E030E021912F3F09F045C0440F6E1746
:103360007F07C1F73983ECE5F1E041E030E02191DE
:103370002F3F09F04CC0440F81E0EF35F807B9F753
:103380003A8342E050E0BE016F5F7F4F8FE092E0F2
:103390000E943D3611E0009709F410E0892B09F4F2
:1033A0004AC089819A819093100280930F0281E034
:1033B00080930E020E946B1990930D0280930C0271
:1033C00080910C0290910D020E945C190597B8F152
:1033D00080910F0280933F028091100280934002FF
:1033E00010920E022CC0A22FA295AF70B0E0909662
:1033F0008C9190E02F7002C0959587952A95E2F701
:1034000080FD03C0842F382BA9CF80E0FCCFA22FF2
:10341000A295AF70B0E090968C9190E02F7002C0B2
:10342000959587952A95E2F780FD03C0842F382B68
:10343000A2CF80E0FCCF80910E028111C1CF812FFD
:103440000F900F90DF91CF911F9108958091080206
:103450009091CD02892B8093A60180910B02882345
:1034600019F10E946B192091090230910A02821B06
:10347000930B8838934110F00E94DF108091A601D1
:1034800090910B02892B8093A60120E088EA91E0BD
:10349000FC013191CF0131112F5FF1E08E3A9F078E
:1034A000B9F721110E94DF1048E050E060E072E0BF
:1034B00086EA91E00E943D36892BA9F088E0E6EA91
:1034C000F1E0A0E0B2E001900D928A95E1F7E09181
:1034D0007603F0917703309731F00280F381E02D8D
:1034E00086EA91E00994089590E080E00E94FA084D
:1034F00090E080E00E94E4081092CD020E94261A1B
:1035000086E0E8E4F2E0DF011D928A95E9F7109287
:10351000420210924102109243020C947719809358
:10352000A4030C94741A8091A403982F967096307B
:1035300019F488600C948F1A877FFCCF21E030E06B
:1035400001C0220F8A95EAF720958091A403822377
:103550000C948F1A9091FF01809589238093FF012D
:10356000282F277091F4282F082E000C330B921768
:10357000130659F09091120292FD07C0859585952A
:1035800085950E949E1A0C94F1100895CF93C091D6
:103590001202C2FB992790F9981799F080FBC2F9A3
:1035A000C09312026091110284E090E00E947F3685
:1035B0006C2F82E290E00E947F3682E0CF910C94E3
:1035C000AA1ACF91089521E030E001C0220F8A9518
:1035D000EAF78091A403822B0C948F1A80939903AD
:1035E0000C94741A10920802E8EAF1E086E0DF0118
:1035F0001D928A95E9F70C94741A1F93CF93DF9369
:10360000CDB7DEB7AA970FB6F894DEBF0FBECDBF19
:1036100081E993E02091F100DC012D93CD01B3E02D
:1036200089399B07B9F780919203833009F472C0FE
:10363000B8F4813009F449C0823009F4B3C08091F4
:10364000E80083FF96C280919103909192039A3093
:1036500008F08FC2E92FF0E0EC52F94C0C942736B9
:103660008A3009F48EC08B3009F471C0893039F783
:1036700080919103813219F780919503909196037F
:10368000009711F00297D9F68091E800877F809328
:10369000E8008091E80082FF38C09091F3008091AB
:1036A000F200029731F48091F100813011F0863000
:1036B00021F48091F100809384038091E8008B775E
:1036C0008093E8000E94AA07BACF80919103813AC3
:1036D00009F0B5CF8091E800877F8093E800809162
:1036E000950390919603892B61F468E085E893E057
:1036F00070E00E945C088091E8008B778093E8007E
:103700009ECF60E090E080E0F3CF80918F03811145
:10371000C0CF95CF80919103813A09F090CF8091ED
:10372000950390919603892B09F089CF8091E80049
:10373000877F8093E8008091E80080FFFCCF809134
:1037400019018093F1008091E8008E77B9CF8091C4
:103750009103813209F073CF809195039091960384
:10376000892B09F06CCF8091E800877F8093E80077
:103770000E94AA0780919303809319010E94F21A74
:103780005ECF80919103813209F059CF8091E8009A
:10379000877F8093E8000E94AA078091940380931A
:1037A00083034DCF80919103813A09F048CF8091F6
:1037B000E800877F8093E8008091E80080FFFCCFDD
:1037C00080918303BECF803899F0823809F0D1C14F
:1037D000809195038F70873008F0CBC18093E9000A
:1037E0008091EB0085FB882780F91092E90006C0E4
:1037F00080918D0390918E03911182609091E800E9
:10380000977F9093E8008093F1001092F1008091EF
:10381000E8008E77AAC1882309F498C1823009F0A4
:10382000A8C18091930381119BC1809195038F70F2
:103830002FEF280F263008F09CC18093E9002091DB
:10384000EB0020FF8DC1933031F48091EB0080625A
:103850008093EB0085C19091EB0090619093EB0019
:1038600021E030E001C0220F8A95EAF72093EA00B8
:103870001092EA008091EB008860EACF811179C153
:10388000109193031F778091E3008078812B8093C0
:10389000E3008091E800877F8093E8000E94AA07F8
:1038A0008091E80080FFFCCF8091E30080688093E6
:1038B000E30082E0111183E080938F035AC18058A6
:1038C000823008F056C120919303309194032C3D2F
:1038D000E3E03E07A1F583E08A838AE289834FB75C
:1038E000F894DE01139620E03EE051E2E32FF0E091
:1038F00050935700E49120FF03C0E295EF703F5FC3
:10390000EF708E2F90E0EA30C0F0C7968D939D93B4
:103910002F5F243159F74FBF8091E800877F809354
:10392000E8006AE270E0CE0101960E945C08809196
:10393000E8008B778093E8001CC1C096E7CF8091A8
:10394000950390919603432F55274330510509F471
:103950004AC078F54130510509F485C08BE590E007
:10396000EFEAFCE04230510509F003C12091E80084
:10397000277F2093E80020919703309198038217C6
:10398000930708F49C0140E02115310509F070C04F
:1039900041116EC08091E80082FDC9CF80918F03F4
:1039A000882329F2853019F28091E80083FFF2CF55
:1039B000BECF4132510509F447C04232510509F0EA
:1039C000D8C08330910508F0D4C0FC01EE0FFF1F72
:1039D000EE57FE4F0190F081E02D81589E4FDC01A3
:1039E0008C9190E01DC0332721303105E9F021157D
:1039F000310579F022303105F9F02330310509F035
:103A0000B8C0ECE1FDE0E4918E2F90E0ECE1FDE048
:103A100007C0E4E6FDE0E4918E2F90E0E4E6FDE0EF
:103A2000009709F4A6C0A2CFEEE4FDE0E4918E2F4A
:103A300090E0EEE4FDE0F4CFEAE3FDE0E4918E2FC8
:103A400090E0EAE3FDE0ECCF8330910508F091C00F
:103A5000880F991FFC01E857FE4F0190F081E02D7F
:103A600089E090E083CF82E190E0EAE0FDE07ECF64
:103A700080918F03882309F45ACF853009F457CFFA
:103A80008091E80083FD53CF8091E80082FD82CFD2
:103A90008091E80080FF78CF9091F3008091F20050
:103AA0002115310519F08830910550F041E0089753
:103AB00009F040E08091E8008E778093E80064CFC1
:103AC00044914093F1003196215031090196E8CF9D
:103AD000803809F04EC08091E800877F8093E8002D
:103AE000809190038093F10092CE811142C0109199
:103AF00093031230F0F58091E800877F8093E8000F
:103B0000109390030E94AA07112311F084E005C0CE
:103B10008091E30087FDFACF81E080938F0342E03C
:103B200061EC81E00E94C90742E261EC84E00E94FE
:103B3000C90742E261EC82E00E94C90742E260EC00
:103B400083E00E94C90780918F0313C08091930383
:103B5000813079F481E0933009F080E080938E0326
:103B60001092E9008091E800877F8093E8000E942E
:103B7000AA078091E80083FF0AC08091E800877F50
:103B80008093E8008091EB0080628093EB00AA961E
:103B90000FB6F894DEBF0FBECDBFDF91CF911F915E
:103BA00008951F920F920FB60F9211242F933F93F7
:103BB0004F935F936F937F938F939F93AF93BF9335
:103BC000CF93DF93EF93FF93D091E900DF70809163
:103BD000EC00C82FC17080FDC0E81092E900809110
:103BE000F000877F8093F00078940E94FD1A109275
:103BF000E9008091F00088608093F000CD2BCF70B9
:103C0000C093E900FF91EF91DF91CF91BF91AF9108
:103C10009F918F917F916F915F914F913F912F91E4
:103C20000F900FBE0F901F901895882341F080953C
:103C30009091CD0289238093CD020C94261A089589
:103C4000882339F09091CD02982B9093CD020C945B
:103C5000261A0895882321F00E94EA100C94261A4F
:103C60000895882339F090910802982B90930802C8
:103C70000C94261A08958823B1F19CEF980F913A7D
:103C800070F4E8EAF1E09191891303C0DF01119724
:103C90001C9291E0EE3AF907B1F70C94261A90E2E3
:103CA000980F983050F4877091E001C0990F8A9571
:103CB000EAF7892F0E94EA10F0CF9BE5980F933026
:103CC00020F490E080E00C94FA0898E5980F973182
:103CD00020F490E080E00C94E408803F20F00E9403
:103CE000E50D0C9477190895CF93C82F882309F414
:103CF00056C08CEF8C0F813AF8F4E8EAF1E08EEAD6
:103D000091E0DF012D91C21759F08A179B07D1F777
:103D10006C2F86EA91E00E94CA08CF910C94261A73
:103D20002191C21303C0DF0111971C928E179F07C8
:103D3000B9F70E94261AECCF80E28C0F883068F425
:103D4000C77021E030E001C0220FCA95EAF78091E8
:103D50000802822B80930802E0CFEBE5EC0FE33002
:103D600040F4F0E0E85DFE4F808190E0CF910C944C
:103D7000FA08E8E5EC0FE73150F4F0E0EE0FFF1F32
:103D8000E55DFE4F80819181CF910C94E408C03FA6
:103D900030F08C2F0E94AA0ECF910C947719CF91FE
:103DA00008951F93CF93DF93182FD0E0C0E089339D
:103DB00011F4C0E5D0E0812F0E94741E209731F4E9
:103DC000812FDF91CF911F910C943B1E8FE99FE0D3
:103DD0000197F1F700C000002197F0CF0F931F93D8
:103DE000CF93DF93C62FD42F022FFC01828188232B
:103DF000A1F06093A7030E946B199093A603809390
:103E0000A503C77081E001C0880FCA95EAF7DF916A
:103E1000CF911F910F910C94311E8091A7036813CD
:103E200035C08091A5039091A6030E945C19883C3F
:103E3000910560F510E21D0FCD17B9F080E28C0FEF
:103E4000883040F4C77081E001C0880FCA95EAF756
:103E50000E942A1E183048F481E09D2F977001C0FF
:103E6000880F9A95EAF70E94311E802F0E94D11E7A
:103E7000183098F4D77081E001C0880FDA95EAF71E
:103E8000DF91CF911F910F910C942A1EC77081E092
:103E900001C0880FCA95EAF7F3CFDF91CF911F9148
:103EA0000F910895AF92BF92CF92DF92EF92FF925F
:103EB0000F931F93CF93DF93EC018AE0A82E288104
:103EC000222309F48CC02130C9F599818A8191306F
:103ED00021F422960E94D11E05C0923029F4229628
:103EE0000E94741E2196EBCF933021F422960E94FB
:103EF0003B1EF8CF943011F02196F4CF229630E09B
:103F000020E0AE014F5F5F4F8053990B8A309105DF
:103F100050F02150310930F38FE99FE00197F1F71C
:103F200000C00000F6CFA29EB001A39E700D112428
:103F30009C01260F371F8981EA01E3CFE22FF0E0D1
:103F4000E154FE4FB490822F86958695869590E039
:103F5000FC01E155FE4FE4902770F12C022E02C0C7
:103F6000F594E7940A94E2F731E0E322FF24FC01A0
:103F7000E156FE4FC490D12C022E02C0D594C794B6
:103F80000A94E2F731E0C322DD24FC01E157FE4F41
:103F9000049110E002C0159507952A95E2F701708B
:103FA0001127E114F10419F081EE0E94741EC1146E
:103FB000D10419F086EE0E94741E8B2D0E94D11E32
:103FC000CD2819F086EE0E943B1EEF2819F081EEF5
:103FD0000E943B1E012B09F485CF8CE27BCFDF9141
:103FE000CF911F910F91FF90EF90DF90CF90BF90F6
:103FF000AF9008959091120292FD10C098E0899FB1
:1040000090011124622B6093FF010E94E31A0E9429
:104010006B199093FE018093FD0108950C94E31AAF
:104020008F929F92AF92BF92CF92DF92EF92FF92C8
:104030000F931F93CF93DF9300D000D0CDB7DEB79F
:104040007C01FC0183819481892B31F080819181F5
:1040500089238F3F09F0C7C40F900F900F900F90E6
:10406000DF91CF911F910F91FF90EF90DF90CF9054
:10407000BF90AF909F908F900895980122513F4537
:104080002031310508F088C48FEF93E00E9461363B
:104090004EEED42ED00E07EB10E08823E1F0809195
:1040A000FF018770C9F2F70182818823A9F280910C
:1040B000120282FDD1CF82E00E94AA1ACDCF011553
:1040C000F4E01F0761F3C8010E946136811101C04D
:1040D000DA940F5F1F4FD110F2CF19821A821B8220
:1040E0001C82CC24CA9448012FEF821A920AC8017C
:1040F0000E94613689831A82882389F2813009F00F
:1041000047C0580132E0A30EB11CC4010E946136C1
:10411000982E8A83882319F2C5010E946136D82E11
:104120008FEF890D833068F4580143E0A40EB11C71
:10413000DB82DD2021F0CE0101960E94521F850115
:10414000D2CF54E09512FBCF580184E0A80EB11CE9
:10415000C80103960E946136DD2009F4A0CF8823B0
:1041600009F49DCF8150990BC89E9001C99E300DD6
:104170001124ED2DE150FF0BCF01820F931F01970A
:10418000F0F2EFE9FFE03197F1F700C00000F7CF60
:10419000CE0101960E94521F5401D1CF81E00E94AE
:1041A000E31A0E94931A7BCF81E00E949E1AF9CFF6
:1041B00082E0F5CF053FECE51E0709F460C008F486
:1041C0005AC0063F2CE5120709F45DC0882309F4A4
:1041D0001EC41092A70303303DE5130708F05AC030
:1041E0000A3F4CE5140730F4C80182509C454497BF
:1041F00008F05AC00E943315909312028093110266
:1042000001319CE5190709F426C108F0A3C0093063
:10421000FCE51F0709F40DC108F070C005303CE54E
:10422000130709F4FEC008F056C003305CE515071B
:1042300009F4EDC008F0F1C08091110281600230F4
:104240001C4509F4E7C0609111021091120284E04C
:1042500090E00E947F36612F82E290E00E947F36DC
:104260000E94F21A1CCF27E245EE65EEB8C326E2A3
:1042700041EE60EEB4C327E245EE64EEB0C326E241
:1042800041EE62EEACC327E245EE66EEA8C328E23B
:1042900041E0EBCF01365DE5150709F4ABCF053AF8
:1042A0008DE5180709F4A6CF0631ECE51E0709F0E5
:1042B000C6C3809108028A7A91E009F490E0909355
:1042C000AE0169E2811165E386EA91E00E94CA08C5
:1042D0000E94261AE4CE8091110280620730ECE53C
:1042E0001E0709F497C080911102806108301C45B7
:1042F00008F490C08091110280648CC080911102FA
:104300008B7F0D302CE5120709F484C098F480915E
:1043100011028E7F0B304CE5140709F47BC08091AD
:1043200011028C600C301C4508F474C0809111029D
:104330008D7F70C00F308CE5180709F488C080911C
:104340001102877F00311C4508F464C0809111027E
:104350008F7D60C00D3FECE51E0709F474C050F579
:1043600005312CE5120709F480C098F48091110200
:10437000837F03314CE5140709F44CC008F46FC087
:104380000E94F21A90911102892F97FB87F98058A9
:1043900041C00B3F8CE5180709F447C008F04FC037
:1043A0008091120281600A3F1C4509F04CCF809336
:1043B000120249CF0130FDE51F0709F462C0B8F4CD
:1043C000809112028C7F0F3F3CE5130781F38091AF
:1043D0001202836001151D4550F380911202982F3F
:1043E000909591708E7F892B90FB81F9E0CF0136FB
:1043F0005DE5150709F44BC0053A8DE5180709F48A
:104400004DC002301D4509F01ECF60E03BC08091D9
:10441000110282608093110216CF80911102846094
:10442000F9CF809111028860F5CF809112028260ED
:10443000BECF0E94F21A809111028068EBCF80916A
:1044400012028E7FB4CF809112028D7FB0CF809107
:1044500011028F7EDFCF809111028F7BDBCF0E9414
:10446000F21A809111028F77D5CF8091110282FBD1
:10447000992790F921E0922790FB82F990FB83F92C
:10448000C9CF61E08EE090E00E947F36DCCE909153
:104490001102892F8F7E94FF8061BCCF9091110211
:1044A000892F8E7F90FF8160B5CF85E3BAC246E049
:1044B0005AE060E17AE00E945B09F1CD40E15AE008
:1044C00066E07AE0F8CF49ED59E063EE79E0F3CFAA
:1044D00043EE59E069ED79E0EECF4FEB59E06CEC3B
:1044E00079E0E9CF4CEC59E06FEB79E0E4CF42EBB7
:1044F00059E065EA79E0DFCF46E759E064E879E022
:10450000DACF44E859E066E779E0D5CF61E081E0B1
:104510000E94ED09C4CD61E08CE0FACF0E94F21A4E
:10452000FFEF24E33CE0F15020403040E1F700C0D1
:1045300000000E949A1281E0A2C280E0A0C28281A3
:1045400000811181882369F0C8010E947814D82E57
:10455000682FC8010E943511B8018D2D0E945C148E
:1045600096C2C8010E940811D82EF6CF212F2F70B5
:10457000C22E107F19F0C29490EFC922DD20B9F04D
:10458000CC2069F080E2800F883010F0011109C062
:1045900080910802C82AC09208020E94261A802F21
:1045A0004AC08091CD02C82AC092CD02F6CF802F9A
:1045B0000E943B1ECC2009F440C080E2800F88306E
:1045C00010F0011104C08C2D0E94EA1006C0C094A6
:1045D0008091CD02C822C092CD020E94261A2DC021
:1045E000312F3F70932E107F103219F0929480EF8C
:1045F0009822002381F0013009F48BC0DD2009F4FA
:1046000094C0CC2009F469C0F701858180FFC7CF31
:104610008F70858362C08091120282FF39C0DD20D5
:1046200081F1992039F0809108028929809308024C
:104630000E94261A80E00E94741E4A2D4850550B95
:104640004430510510F40E941009BB20A9F080915C
:10465000FF0180FD11C0F701128285958595859532
:104660000E94E31AC7010E9410208091FF018595E6
:10467000859585950E949E1A60E0C7010E94DA1414
:10468000EBCC80E00E943B1E9920B9F2892D9CCF93
:10469000DD2039F1C11004C080910B0289291EC0B0
:1046A00041E0C41210C082FDC8CF80910B02982A4D
:1046B000981619F20E946B1990930A0280930902CE
:1046C00090920B02BACF55E0C512E6CF0E94DF10E0
:1046D0008091FC0198129092FC01892D0E94311E5C
:1046E000ACCFC11006C00E94DF10892D0E942A1E87
:1046F000A4CF81E0C81208C080910802892109F482
:104700009CCF0E94F810EFCF95E0C91609F495CF21
:10471000EACFDD2029F0E5E0EC1508F48ECFDDCFFF
:10472000F4E0FC1508F489CFE0CFCC20F1F2093396
:1047300049F4FFEF27EE33E0F15020403040E1F73D
:1047400000C00000802F0E943B1E77CF812F8695EE
:104750008695837061F0813009F06FCFC801937046
:10476000D11002C090E080E00E94E40866CFC8014A
:104770009370D11002C090E080E00E94FA085DCFF3
:10478000802FDD2029F00E94AA0E0E94771955CFB4
:104790000E94E50DFACF812F837089F5D1104DCF9E
:1047A000402F429546954770440F440F802F8F70DD
:1047B000042E01C0880F0A94EAF7202F207104FF0D
:1047C00007C02FE030E001C0220F4A95EAF720959C
:1047D000169516951370123069F050F430919903C4
:1047E000113029F0822B83230E94EE1A26CF832BCF
:1047F000822BFACF282B809199038227F5CF8695BB
:10480000DD2011F0812F8170882309F416CF402F0D
:10481000429546954770440F440F802F8F70042EA9
:1048200001C0880F0A94EAF7202F207104FF07C007
:104830002FE030E001C0220F4A95EAF72095169547
:1048400016951370123069F050F43091A4031130B2
:1048500029F0822B83230E948F1AEFCE832B822B89
:10486000FACF282B8091A4038227F5CF1F70DD207B
:1048700029F0812F0E94E31A802F30CF802F0E94D1
:104880002A1E812F0E949E1AD8CE023F81F160F429
:10489000003FB9F0013F81F0DD2009F46DC0C11087
:1048A0007ECE812F8F7127C0033F41F1043FA1F7D6
:1048B0008091120282FF2DC0812F8F71DD2011F3B4
:1048C0001AC0DD2079F044E04C1508F4B6CE1F7113
:1048D00081E090E001C0880F1A95EAF79091A40357
:1048E0008927B9CF55E05C1508F4A7CEF0CF812F0A
:1048F0008F71D110C7CF0E94E31A9FCE80E0DD20D8
:1049000009F4A9CF1F7181E001C0880F1A95EAF759
:10491000A2CF8091FC01DD20D9F00E94EA108091A5
:10492000FF018770843041F40E94F110812F8F7154
:104930000E949E1AB12C81CE84E08C15D8F31F7191
:10494000812F0E94E31A63E0812F0E94FA1FF2CFA9
:1049500090910802982B9093080294E09C1540F4E3
:104960000E94F1100E94F81064E0812F8F71EDCF4A
:1049700081E00E94AA1ADECFCC2059F0093309F059
:10498000E1CEEFEFF7EE23E0E150F0402040E1F719
:10499000D7CE812F8F7176CF0031FFE51F0709F445
:1049A000FDCB01312FE5120709F402CC033F2CE5C2
:1049B000120709F45CCC08F0FDCB083D4CE5140768
:1049C00009F451CC093D5CE5150709F460CC073DBD
:1049D0009CE5190709F0FACB26E241EE61EEC7012A
:1049E0000E94EE1E5CCB61E0C7010E94DA148C01CC
:1049F000F7018281811141CB00313FE5130709F4B2
:104A0000D3CB01314FE5140789F682E0CECB0631D6
:104A1000FCE51F0709F06FC08091AE01811145CD03
:104A200089E2E8EAF1E02EEA31E09191891303C0CE
:104A3000DF0111971C922E173F07B9F749CC0A35B1
:104A40002DE5120709F477CD58F401154CE514074C
:104A500009F464CD0E3D1C45A1F40E94F5171FCB4F
:104A60000B358DE5180709F468CD0C351D4549F463
:104A70008091120282FB882780F991E089270E94A9
:104A8000C61AF70186819781009709F458CD0E94D4
:104A9000570F8C01F701D280C580C2943FE0C3223A
:104AA0008091FF018770C1F0BD2CDD20B1F0812F16
:104AB000807F803421F080E2800F883068F0809120
:104AC000120282FD09C082E00E94AA1A8091FF01B1
:104AD0008770BB24B3948111B12CA12EA2942FE036
:104AE000A222FBE0FA1508F4A8CDEA2DF0E0E2528C
:104AF000F94C0C9427368091080282720A3CECE54E
:104B00001E0709F4F4CCA0F5053C2CE5120709F4C6
:104B1000DACCC8F4033C4CE5140709F4C8CC08F01F
:104B2000CDCC023C1C4509F0ACCF80919E0391E0B6
:104B3000892780939E031092150180916102816004
:104B400080936102ACCA073C9CE5190709F4C5CC07
:104B500008F4BECC083CFCE51F0709F4C3CC45EAC9
:104B600059E062EB79E0093C1C4509F4A4CC89CFFB
:104B70000F3C3CE5130709F4CECC98F40C3C5CE503
:104B8000150709F4BECC08F4B7CC0D3CECE51E07C4
:104B900009F4BCCC61E084E00E3C1C4509F4B8CCBF
:104BA00070CF063D2CE5120738F461E081E1013D4C
:104BB0001C4508F4ADCC73CA0D351D4509F46FCA08
:104BC00060CFCF93DF938091B701807FA1F4809174
:104BD000B401882381F08091FB01D091BA016091EA
:104BE000B2017091B301A091B501B091B601C62F89
:104BF000C723D81303C0DF91CF91089590E0109799
:104C000011F0CF3F19F401968770F3CF9C0143E078
:104C1000220F331F4A95E1F7F901E554FE4F418118
:104C20004713F1CF40814613EECF42814111EBCFC4
:104C3000438154814A1B5B0B483C510520F780910E
:104C4000B7018F7080618093B701F901E054FE4F86
:104C500080818F708061808382EB91E00E941020C0
:104C6000DF91CF910C94FE10AF92BF92CF92DF9262
:104C7000EF92FF920F931F93CF93DF93CDB7DEB7E1
:104C800065970FB6F894DEBF0FBECDBF8C0185E0EF
:104C9000F801DE01519601900D928A95E1F7F80135
:104CA000E28062EBA62E61E0B62E6091B5017091B4
:104CB000B6016115710509F468C19091B201409186
:104CC000B301892F84238F3F09F45FC12081318193
:104CD000C380D480F090B401F601E61BF70BFF20EF
:104CE00009F41DC18091B701582F507FE83CF105B0
:104CF00008F0D0C0511181C0FE2C43132BC0921379
:104D000029C06091B8017091B901F80146815781BD
:104D100064177507F9F4E1101DC08F7080618093EE
:104D2000B701C5010E9410208091B701F801858369
:104D30008F2D65960FB6F894DEBF0FBECDBFDF9105
:104D4000CF911F910F91FF90EF90DF90CF90BF9088
:104D5000AF900895CD2829F0822F83238F3F09F04B
:104D60002FC180E0F82FF170DF2E80FF3CC08091D2
:104D7000FB014091BA01841315C0298B3A8B8989B4
:104D80009A890E94A714292F22952F702230F8F0BB
:104D9000243020F59F70F9F0F8019581907FD9F4C7
:104DA000D12C1FC090E0FC0153E0EE0FFF1F5A957D
:104DB000E1F7E554FE4F5181351306C050812513AC
:104DC00003C05281E5120FC001968770D4CF9F7047
:104DD00011F0882329F3805E883010F3C8010E9407
:104DE0001020FD2CA5CFEE2009F4A2CF8091B701B1
:104DF00081608093B701F12C9BCF43131BC09213AA
:104E000019C04091B8015091B901F801268137814C
:104E10004217530779F4E1100DC08583C8010E9441
:104E2000102088E0F801A2EBB1E001900D928A9584
:104E3000E1F77ECFC8010E94B314882339F1EE2038
:104E400029F18091B7018032A0F02091B201309118
:104E5000B3013A8729871B86DD86CC868E878091B1
:104E6000B8019091B901988B8F87CE0109960E9465
:104E7000102088E0F801A2EBB1E001900D928A9534
:104E8000E1F70E94E125FF24F39452CFC8010E946C
:104E90001020F9CF51110AC082EB91E00E9410203E
:104EA00088E0F50111928A95E9F7A5CF431318C060
:104EB000921316C04091B8015091B901F8012681B2
:104EC00037814217530761F4E1100AC08583C80196
:104ED0000E94102088E0F50111928A95E9F728CF09
:104EE000C8010E94B314882389F2EE2079F28091E0
:104EF000B701803208F4BDCF2091B2013091B301E7
:104F00003A8329831B82DD82CC828E838091B80113
:104F10009091B90198878F83CE010196A8CFE83C84
:104F2000F105C0F6FE2CEE2009F4B0CF43131FC0EC
:104F300092131DC02091B8013091B901F80186810A
:104F400097812817390799F49091B70190FD69CF9F
:104F5000907F09F466CF8091B7018583903F09F473
:104F60005DCF982F907F905F8F70892B56CFC801AF
:104F70000E94B31481117DCF8091B701816080932D
:104F8000B701C8010E941020D3CEEE2009F47ECFD5
:104F9000C8010E94B314F82E882309F477CF88E063
:104FA000F801A2EBB1E001900D928A95E1F78091B2
:104FB000B2019091B3010E94A7140E94E125B8CEDE
:104FC00081E08E25CFCECF93DF93CDB7DEB760974C
:104FD0000FB6F894DEBF0FBECDBF29873A874B8747
:104FE0005C876D877E878F87988BCE0109960E949C
:104FF0003426811112C088E0FE013996DE01119637
:1050000001900D928A95E1F78C859D85892B29F079
:1050100089859A8589238F3FA9F58091FB0190911D
:10502000BA0189131CC060960FB6F894DEBF0FBE9C
:10503000CDBFDF91CF91089593E0AA0FBB1F9A9542
:10504000E1F7A554BE4F98E0FE01319601900D9214
:105050009A95E1F78093BA010E94FE10DECFB8E086
:105060008B9FC001112485549E4F0E9434268823B3
:10507000D1F28091FB0190E001968770992780938F
:10508000FB01CBCFA091BA01B0E0CD0101968770B2
:1050900099272091FB012817190671F60E94F21A30
:1050A0001092BA011092FB0188E0E2EBF1E0DF011F
:1050B0001D928A95E9F7B1CF0F931F93CF93DF939A
:1050C0008091CF02E091CE02CCE081111AC0DF9135
:1050D000CF911F910F910895D1E0DE0FD093CE02B2
:1050E0000E2F10E0EC9FF0011124E053FD4F83815F
:1050F0009481892B29F08081918189238F3F51F4FC
:10510000ED2F8091CF02E81738F31092CF02109262
:10511000CE02DDCFC09FD001C19FB00D1124A0539E
:10512000BD4F16968D919C911797892B29F418964F
:105130008D919C91019651F420813181428153815E
:1051400064817581868197810E94E327C09FF00169
:10515000C19FF00D1124E053FD4F14821382109271
:10516000CD02CECF109273031092720310921801E9
:1051700080917103809370030E944A090C945C280B
:105180003F924F925F926F927F928F929F92AF92D7
:10519000BF92CF92DF92EF92FF920F931F93CF9324
:1051A000DF93C091700397E0892E01E010E02CE0BE
:1051B000322E3EEF932E44244394809171038C133E
:1051C00015C00E945C28DF91CF911F910F91FF9035
:1051D000EF90DF90CF90BF90AF909F908F907F9097
:1051E0006F905F904F903F900C944A09D0E0FE0181
:1051F000EE0FFF1FE859FC4F80819181889ED001FE
:10520000899EB00D1124A05DBC4F14962C9114976B
:10521000211157C05090CF02E0EDF2E030E020E0E5
:10522000712C5D01251508F04AC0E284F384D50194
:10523000CD90DC906FEF7FEF612C462D50E0DA01CE
:10524000AA0FBB1FAC0DBD1D0D90BC91A02D1097DA
:1052500031F0EA16FB0609F4BA016394EECF6F3F12
:105260007607A1F1D80102C0AA0FBB1F6A95E2F729
:105270007A2AB80102C0660F771F6A94E2F7AB0181
:105280004150510974161506F9F4329EF001339E0F
:10529000F00D1124E053FD4F889ED001899EB00D82
:1052A0001124A05DBC4F12962D913C91139737832A
:1052B0002683908291829187808715964C920E94D6
:1052C0001C092196C37079CF148213822F5F3F4F40
:1052D0003C96A8CF2F923F924F925F926F927F920F
:1052E0008F929F92AF92BF92CF92DF92EF92FF92F6
:1052F0000F931F93CF93DF93CDB7DEB769970FB6A8
:10530000F894DEBF0FBECDBF498B5A8B6B8B7C8B65
:105310008D8B61111092CD021D861E861F86188A04
:1053200085E0FE017196DE01199601900D928A9535
:10533000E1F78091120282FD1CC00E946B1920913E
:10534000FD013091FE01821B930B8838934120F0C0
:105350008091FF0182FFFEC10E946B19209109021A
:1053600030910A02821B930B8838934110F00E94FF
:10537000DF108C859D85892B31F089859A8589235D
:105380008F3F09F0D3C129853A854B855C856D85B2
:105390007E858F8598890E94E327C2C048EFC41696
:1053A0004CE5D40629F4882379F00E94B228EBCF8B
:1053B00069EFC6166CE5D60639F4882329F080918A
:1053C00018018111F2CFC2C100E313E0E12CB12C2E
:1053D000A12C88248394912C2EEF522E44244394A4
:1053E000F8014081518166246A94762C20E0822F56
:1053F00090E0FC01EE0FFF1FE40FF51F608171814B
:105400006115710531F0C616D70609F43C012F5F0E
:10541000EECFF12CFFEF6F167F0609F443C0F801C1
:105420004481F09018018F2D411180E0F82FF17028
:10543000FF2EF801258086819B85992309F406C1FA
:10544000FF2009F403C1211013C0A40101C0440FBF
:105450006A94EAF7842B86838091CB029091CC02E8
:10546000C29730F462E370E07093CC026093CB0299
:10547000C40102C0880F991F2A95E2F70197F8012D
:1054800026812817190671F4809172039091730395
:10549000009709F45EC00E945C19C39708F459C0D4
:1054A000F8014482EF28FFEFAF1ABF0A095F1F4FD0
:1054B00028E0A216B10409F093CF8B85882309F464
:1054C00020C1EE2009F41DC10E946B199093730353
:1054D000809372038091CF02883010F591E0980F8D
:1054E0009093CF0298E0FE013996DE01119601906B
:1054F0000D929A95E1F73CE0839FC00111248053FF
:105500009D4F28E0FE013196DC0101900D922A9515
:10551000E1F72FEF3FEFFC0131872087D386C2866A
:1055200069960FB6F894DEBF0FBECDBFDF91CF9165
:105530001F910F91FF90EF90DF90CF90BF90AF90B1
:105540009F908F907F906F905F904F903F902F90A3
:1055500008958091700350917103982FF0E0E0E07E
:10556000851314C0909370030E171F0709F49ACF88
:1055700090E0FC01EE0FFF1FE859FC4FB182A082C2
:10558000019683709927809371038CCF282E312C3C
:10559000F101EE0FFF1FE859FC4F20813181F7E048
:1055A000F29FD001F39FB00D1124A05DBC4F2D914F
:1055B0003C911197398F288F40E020E030E0E32FB5
:1055C000F0E0EE0FFF1F688D798DE60FF71F60800A
:1055D000718061147104E1F0F8010190F081E02D17
:1055E000FF8BEE8B20E005C06616770609F44F2D81
:1055F0002F5FE22FF0E0EE0FFF1F6E897F89E60F2D
:10560000F71F608171816115710571F73F5FD7CF19
:105610004423C9F0F801231708F0FD0144820E1756
:105620001F0721F490937003F42E3CCF981305C00C
:10563000AE17BF0711F49F5F937091012F5F3F4F2B
:10564000822F83708DCFF0E0E0E0F7CF90E0211063
:105650001FC0B40102C0660F771F2A95E2F79B01B5
:10566000215031098217930731F4442309F447C0CC
:10567000C5010E941C09C40101C0880F6A94EAF7A1
:10568000982F9095F801868189238683F22C0ACF82
:105690009C01062C02C0359527950A94E2F7A901D2
:1056A00041705527BC016150710986239723892BCE
:1056B00011F5452B01F1F80182819381892BC1F00D
:1056C0001B821C821D821E8259825A820E946B1983
:1056D0008160582F9D838C83F801828193818F8311
:1056E000988729813A814B816D817E810E94E327D1
:1056F000F8011582C0CFF22FF1702F2EBCCF2F2CC6
:10570000BACF9091700380917103981731F00E9485
:10571000C028EE2009F437CE03CF0E945C281092F7
:105720007303109272030E944A09F3CF61E0CE0125
:1057300009960E94DA146C018B85F7EFCF16FCE511
:10574000DF0609F02BCE882309F43ECE81E080935A
:10575000180119CE82E00E94AA1AFECD0F931F9362
:10576000CF93DF9300D000D00F92CDB7DEB78C017E
:105770009093C2028093C102011580E2180720F5C0
:10578000802F0E943B1EC8010E9476119801205E66
:1057900031092830310510F0012B59F40F900F908A
:1057A0000F900F900F90DF91CF911F910F910C945C
:1057B0002A1E0F900F900F900F900F90DF91CF91B6
:1057C0001F910F910C94151E8EEF89838A831B8283
:1057D0000E946B198160782F9D838C8349815A8147
:1057E0006B818D810F900F900F900F900F90DF9134
:1057F000CF911F910F910C946A290F931F93CF9310
:10580000DF9300D000D00F92CDB7DEB78C0190931C
:10581000C2028093C102011580E21807E8F4C801B2
:105820000E9476119801205E31092830310518F068
:105830000115110571F40E94311E802F0F900F90F9
:105840000F900F900F90DF91CF911F910F910C94BB
:10585000741E0E94201EF1CF8EEF89838A8381E01F
:105860008B830E946B198160782F9D838C83498183
:105870005A816B818D810F900F900F900F900F9038
:10588000DF91CF911F910F910C946A29BF92CF9213
:10589000DF92EF92FF920F931F93CF93DF93B82E77
:1058A000C090A40380919903C82AC7E0D0E0D12C0E
:1058B000F12CE12CD701C6010C2E04C0B695A7959A
:1058C000979587950A94D2F780FF1FC04B2D60E013
:1058D0008C2F0E9404148C0181309105B1F00E943C
:1058E000FD2B8FE39CE90197F1F700C00000C80190
:1058F0000E94AE2B81E0DF91CF911F910F91FF901D
:10590000EF90DF90CF90BF900895219798F64B2DA0
:1059100060E080E00E940414EC010E94FD2B8FE304
:105920009CE90197F1F700C00000CE01E1CF1F9282
:105930001FB61F9211248F939F93AF93BF938091B3
:105940007A03811113C080917B0390917C03A09115
:105950007D03B0917E034196A11DB11D80937B0311
:1059600090937C03A0937D03B0937E03BF91AF918E
:105970009F918F911F901FBE1F901895CDB7DEB7D6
:10598000EC970FB6F894DEBF0FBECDBF84B7877F0C
:1059900084BF0FB6F894A8958091600088618093C9
:1059A0006000109260000FBE80E890E00FB6F8949F
:1059B00080936100909361000FBE85B7806885BFBA
:1059C00085B7806885BF82E19FE09093A5018093B1
:1059D000A4010E9441150E9430070E94FB0780919C
:1059E000E20084608093E200789480918F038823A2
:1059F000A1F01091E9001F709091EC00892F817047
:105A000090FD80E8182B1092E9008091E80083FD5A
:105A10000E94FD1A1F701093E90082E084BD93E09C
:105A200095BD9AEF97BD80936E000E941A15811163
:105A300002C00E94F51329E531E06FE571E001E055
:105A400010E0D90150E040E08D918F3F91F0E82FB8
:105A5000E295EF70F0E0D1A08F70780101C0EE0CFC
:105A60008A95EAF79E2D90959D2191A382A18E297A
:105A700082A34F5F5F4F4330510531F72D5F3F4F9A
:105A800062177307F1F61092400210923F021092D3
:105A9000100210920F020E94EA17811102C00E94A8
:105AA000F51782E090E00E946136809313020E9415
:105AB000331590931202809311020E949E198FE376
:105AC0009CE90197F1F700C000000E949E198091A7
:105AD0003F0281FF08C06FEF7FEF90E080E00E94FF
