:100000000C949E060C94E5060C94E5060C94E5060B
:100010000C94E5060C94E5060C94E5060C94E506B4
:100020000C94E5060C94E5060C9432330C940634DB
:100030000C94782D0C94E5060C94E5060C94E506DA
:100040000C94E5060C94E5060C94E5060C94E50684
:100050000C94E5060C94CF2D0C94E5060C94E50663
:100060000C94E5060C94E5060C94E5060C94E50664
:100070000C94E5060C94E5060C94E5060C94E50654
:100080000C94E5060C94E5060C94E5060C94E50644
:100090000C94E5060C94E5060C94E5060C94E50634
:1000A0000C94E5060C94E5060C94E506FF010101AD
:1000B00009C94141494941414949414149494141B0
:1000C00049494141494941C10909C1414949414160
:1000D000494941414143474F4F4F4F4F4F4F4F4F7A
:1000E000C70303C34343434343434343474F4F4F34
:1000F0004F4F4F4F4F4F4F4F4FCF0703C3C3C3C354
:10010000C3C3C3C3C3C3C3C3C3C3C3C3C7CFCFCF97
:10011000CFCFCF0F0F0F0F0F0F0F0F0909090909CD
:1001200009090F0000000F0F0F0F00003F00000033
:1001300000FF000000000000E0E0E0FCFCFC00002C
:1001400000000000000000FF0000FF0000000000B1
:10015000001C1C1C1C1C1CE0E0E000000000000057
:10016000FF0000FF0000000000001C1C1C1C1C1CE9
:10017000E0E0E0000000000000FF0000FFFFFFFFE4
:10018000FFFFFFFFFF1F1F030303FFFFFFFFFFFF33
:10019000FFFFFF000000000000000000000000C0A2
:1001A00080000000000000000000000000000000CF
:1001B00000FF000000000000C0C0C0FFFFFFC0C083
:1001C000C0000000000000FF0000FF000000000071
:1001D00000F8F8F8C7C7C7C7C7C70000000000008D
:1001E000FF0000FF000000000000C7C7C7C7C7C767
:1001F000383838000000000000FF0000FFFFFFFF5C
:10020000FFFFC0C0C0C7C7000000C7C7C7FFFFFFD0
:10021000FFFFFF0000000000000000FFFE0C183090
:1002200061C3860C183060C0800000000000000030
:10023000001F1010101010101111111111111111B7
:10024000111010101010101F00001F1010101010AF
:100250001011111111111111111110101010101095
:100260001F00001F1010101010101111111111118A
:100270001010101010101010101F00001F1F1F1F53
:100280001F1F1F1F1F1F1F5E5E5E5F5F5F5F5F5F41
:100290005F5F5F40404040404040404343404040FB
:1002A00040404143464C58706143060CFF01010138
:1002B00009C94141494941414949414149494141AE
:1002C00049494141494941C10909C141494941415E
:1002D000494941414143474F4F4F4F4F4F4F4F4F78
:1002E000C70303C3C3C3C3C3C3C3C3C3C7CFCFCF32
:1002F000CFCFCFCFCFCFCFCFCFCF0703C343434352
:10030000434343434343434343434343474F4F4F95
:100310004F4FCF0F0F0F0F0F0F0F0F0909090909CB
:1003200009090F0000000F0F0F0F00003F00000031
:1003300000FF000000000000E0E0E0FCFCFC00002A
:1003400000000000000000FF0000FF0000000000AF
:10035000001C1C1C1C1C1CE0E0E000000000000055
:10036000FF0000FFFFFFFFFFFFFFE3E3E3E3E3E343
:100370001F1F1FFFFFFFFFFFFFFF0000FF00000028
:100380000000000000E0E0FCFCFC000000000000B9
:100390000000FF000000000000000000000000C09E
:1003A00080000000000000000000000000000000CD
:1003B00000FF000000000000C0C0C0FFFFFFC0C081
:1003C000C0000000000000FF0000FF00000000006F
:1003D00000F8F8F8C7C7C7C7C7C70000000000008B
:1003E000FF0000FFFFFFFFFFFFFF383838383838C5
:1003F000C7C7C7FFFFFFFFFFFFFF0000FF000000B0
:1004000000003F3F3F3838FFFFFF3838380000001A
:100410000000FF0000000000000000FFFE0C18308C
:1004200061C3860C183060C080000000000000002E
:10043000001F1010101010101111111111111111B5
:10044000111010101010101F00001F1010101010AD
:100450001011111111111111111110101010101093
:100460001F00001F1F1F1F1F1F1F1E1E1E1E1E1EE0
:100470001F1F1F1F1F1F1F1F1F1F00001F101010F7
:100480001010101010101051515150505050505029
:1004900050505F4040404040404040434340404017
:1004A00040404143464C58706143060CFF01010136
:1004B00009C94141494941414949414149494141AC
:1004C00049494141494941C10909C1C1C9C9C1C1DC
:1004D000C9C9C1C1C1C3C7CFCFCFCFCFCFCFCFCF76
:1004E000C70303C34343434343434343474F4F4F30
:1004F0004F4F4F4F4F4F4F4F4FCF0703C3434343D0
:10050000434343434343434343434343474F4F4F93
:100510004F4FCF0F0F0F0F0F0F0F0F0909090909C9
:1005200009090F0000000F0F0F0F00003F0000002F
:1005300000FF000000000000E0E0E0FCFCFC000028
:1005400000000000000000FF0000FFFFFFFFFFFFB2
:10055000FFE3E3E3E3E3E31F1F1FFFFFFFFFFFFFF3
:10056000FF0000FF0000000000001C1C1C1C1C1CE5
:10057000E0E0E0000000000000FF0000FF000000DD
:100580000000000000E0E0FCFCFC000000000000B7
:100590000000FF000000000000000000000000C09C
:1005A00080000000000000000000000000000000CB
:1005B00000FF000000000000C0C0C0FFFFFFC0C07F
:1005C000C0000000000000FF0000FFFFFFFFFFFF72
:1005D000FF070707383838383838FFFFFFFFFFFFBD
:1005E000FF0000FF000000000000C7C7C7C7C7C763
:1005F000383838000000000000FF0000FF00000055
:1006000000003F3F3F3838FFFFFF38383800000018
:100610000000FF0000000000000000FFFE0C18308A
:1006200061C3860C183060C080000000000000002C
:10063000001F1010101010101111111111111111B3
:10064000111010101010101F00001F1F1F1F1F1F60
:100650001F1E1E1E1E1E1E1E1E1E1F1F1F1F1F1FB3
:100660001F00001F10101010101011111111111186
:100670001010101010101010101F00001F1010107C
:100680001010101010101051515150505050505027
:1006900050505F4040404040404040434340404015
:1006A00040404143464C58706143060CFF01010134
:1006B00009C9C1C1C9C9C1C1C9C9C1C1C9C9C1C1AA
:1006C000C9C9C1C1C9C9C1C10909C14149494141DA
:1006D000494941414143474F4F4F4F4F4F4F4F4F74
:1006E000C70303C34343434343434343474F4F4F2E
:1006F0004F4F4F4F4F4F4F4F4FCF0703C3434343CE
:10070000434343434343434343434343474F4F4F91
:100710004F4FCF0F0F0F0F0F0F0F0F0909090909C7
:1007200009090F0000000F0F0F0F00003F0000002D
:1007300000FFFFFFFFFFFFFF1F1F1F030303FFFF5C
:10074000FFFFFFFFFFFFFFFF0000FF0000000000B2
:10075000001C1C1C1C1C1CE0E0E000000000000051
:10076000FF0000FF0000000000001C1C1C1C1C1CE3
:10077000E0E0E0000000000000FF0000FF000000DB
:100780000000000000E0E0FCFCFC000000000000B5
:100790000000FF000000000000000000000000C09A
:1007A00080000000000000000000000000000000C9
:1007B00000FFFFFFFFFFFFFF3F3F3F0000003F3F05
:1007C0003FFFFFFFFFFFFFFF0000FF0000000000F2
:1007D00000F8F8F8C7C7C7C7C7C700000000000087
:1007E000FF0000FF000000000000C7C7C7C7C7C761
:1007F000383838000000000000FF0000FF00000053
:1008000000003F3F3F3838FFFFFF38383800000016
:100810000000FF0000000000000000FFFE0C183088
:1008200061C3860C183060C080000000000000002A
:10083000001F1F1F1F1F1F1F1E1E1E1E1E1E1E1EEF
:100840001E1F1F1F1F1F1F1F00001F101010101042
:10085000101111111111111111111010101010108F
:100860001F00001F10101010101011111111111184
:100870001010101010101010101F00001F1010107A
:100880001010101010101051515150505050505025
:1008900050505F4040404040404040434340404013
:1008A00040404143464C58706143060CD408CA0886
:1008B000C008B6080000000500FFFFFF00000000B0
:1008C0000005D5FFFFFF00000000000580FFFFFFCF
:1008D0000000000000050000FFFF00000000C25CF7
:1008E000A8001150AC00AE00AB0052004B001250FB
:1008F0004A004E004D00520052001350500051006B
:100900004F00C25CC95C1050C45CCA5CC35C000090
:100910000000000000002A2B28000000000000005A
:1009200000000000000000000029000000002C1E54
:100930003420212224342627252E362D3738271E11
:100940001F202122232425263333362E37381F0437
:1009500005060708090A0B0C0D0E0F1011121314CF
:1009600015161718191A1B1C1D2F3130232D35048D
:1009700005060708090A0B0C0D0E0F1011121314AF
:1009800015161718191A1B1C1D2F3130354C000075
:100990000000000000000000000000000000000057
:1009A0000000000000000000000000000000000047
:1009B00000007E0F00D4FFFFFFC7000000787F3FDC
:1009C0001F643214783C1EFFAA7F554000010101CC
:1009D00001010101010102020202020202020203FC
:1009E00003030303030303040404040404040505CC
:1009F000050505060606060607070707070808088F
:100A000008090909090A0A0A0B0B0B0C0C0C0D0D3D
:100A10000D0E0E0E0F0F0F101011111112121313D5
:100A20001414151516161717181819191A1A1B1B4E
:100A30001C1D1D1E1E1F20202122222324242526AA
:100A400026272829292A2B2C2D2D2E2F30313232E2
:100A5000333435363738393A3B3C3D3E3F404142EE
:100A6000434445464748494A4C4D4E4F50515354D4
:100A7000555658595A5B5D5E5F6162646566686988
:100A80006B6C6D6F7072737577787A7B7D7E808208
:100A9000838587888A8C8E8F91939596989A9C9E51
:100AA000A0A2A3A5A7A9ABADAFB1B3B5B7BABCBE61
:100AB000C0C2C4C6C9CBCDCFD1D4D6D8DBDDDFE22E
:100AC000E4E7E9EBEEF0F3F5F8FAFDFFFD377A58CD
:100AD0005A000004E6D6B4460200210116000000C8
:100AE000742FE5A3E000AB00705D003D8889C6541B
:100AF00036C3174FE4E4696322279B56FCC52BE3FA
:100B00007F8A598BA8297C3268BED6132E87255739
:100B1000B1134171D764468E481139E828D1756FF9
:100B2000AC05754504A902262FBB5AEA8BD1E0D04B
:100B3000B3BFDFE246676D644596CE99236176D9EF
:100B4000FC7FD4A664FA58D37B742584BCC4E1CB63
:100B50007B3AAD205D04FD03334B0000B49B76E986
:100B6000BA5CE72D00018C01AC01000044E538912E
:100B7000B1C467FB020000000004595A00AE00AF88
:100B800000DA0281FFD9F1DB20A4A62EAF00A0C0BD
:100B900000A1C800AED580A81FD300408D1420004E
:100BA0001C037600690061006C003A0066003600A4
:100BB000340063003200620033006300000012035F
:100BC00050006F006300680072007A0079006E00C8
:100BD000000014036D0061006B00730072006F0071
:100BE0006A0065006B0000000403090409025B0051
:100BF000030100A0FA09040000010301010009211A
:100C000011010001224000070581030800010904C9
:100C1000010002030000000921110100012222004D
:100C200007058203200001070503032000010904D2
:100C300002000103000000092111010001228100CE
:100C400007058403200001120110010000000809BB
:100C50001228230502010203010660FF0961A101B8
:100C60000962150026FF00952075088102096315A9
:100C70000026FF00952075089102C005010902A118
:100C80000185020901A100050919012905150025A1
:100C90000195057501810295017503810105010921
:100CA0003009311581257F950275088106093815AF
:100CB00081257F950175088106050C0A380215818A
:100CC000257F950175088106C0C005010980A10135
:100CD000850319012AB700150126B7009501751083
:100CE0008100C0050C0901A101850419012AA00297
:100CF000150126A002950175108100C005010906A5
:100D0000A101050719E029E71500250195087501DE
:100D100081029501750881010507190029FF150059
:100D200026FF00950675088100050819012905951B
:100D30000575019102950175039101C011241FBE33
:100D4000CFEFDAE0DEBFCDBF04B603FE27C080914F
:100D5000DF049091E004A091E104B091E2048730B7
:100D6000904BA740B04BD1F41092DF041092E004F6
:100D70001092E1041092E20414BE84B7877F84BF0E
:100D80000FB6F894A8958091600088618093600008
:100D9000109260000FBEE0E0F8E3099511E0A0E0DA
:100DA000B1E0EEECFDE602C005900D92A23EB10767
:100DB000D9F724E0A2EEB1E001C01D92AF3DB20729
:100DC000E1F70E94EA2F0C94A5360C940000CF9214
:100DD000DF92EF92FF926B017C010E9496098230B4
:100DE000B1F0833001F164EF71E0813099F060E09F
:100DF00081E00E949F1460E082E00E949F1460E006
:100E000083E00E949F1464EF71E080E003C064EF10
:100E100071E082E00E94BC14C701B601FF90EF9020
:100E2000DF90CF90089564EF71E083E0F3CF8CEA18
:100E300098E09093F9018093F8010E94521485E0A4
:100E40000C944F1482E0089560918B0270918C0293
:100E500080918D0290918E020E94960960E072E06E
:100E6000823041F0833049F0813051F48CEA94E0D3
:100E70000C94261D8CEA92E0FBCF8CEA90E0F8CF30
:100E80008CEA96E0F5CFCF93DF939C013A9521153C
:100E90003F4168F5EC01CC27D170DC01AA27B27084
:100EA000AC01442754709C012227387094FF11C074
:100EB00080E1CD2B09F480E0AB2B09F08062452B5B
:100EC00009F08064232B09F08068FB01DF91CF914A
:100ED000099481E0CD2B09F480E0AB2B09F082600E
:100EE000452B09F08460232B81F38860EECFDF91DE
:100EF000CF910895CF93DF93EC01805E910908971D
:100F000020F06FE476E2209711F467EF73E2CE01F0
:100F10000E9443078C2FDF91CF910C945B23CF93DA
:100F2000DF93EC010E94A923CE01805E910908970E
:100F300020F066E576E2209711F46EEF73E2CE01C1
:100F4000DF91CF910C94430781E0089581E00895EB
:100F50000C94A60708950C94AA071F93CF93DF93D0
:100F600000D000D00F92CDB7DEB749835A836B8390
:100F700030914D0289819A8131111DC06623B9F0EB
:100F80002223A9F00E94E42A182F682F89819A81D0
:100F90000E948F2A69817A81812F0F900F900F9084
:100FA0000F900F90DF91CF911F910C946B1B0E94BB
:100FB000BC2A182FEFCF0E94E42A69817A81EDCFF5
:100FC000FC01262F408151816281738184810C94C0
:100FD000AD07CF93DF93EC0160E00E94E007BE0114
:100FE000DF91CF910C94AB078F929F92AF92BF92FB
:100FF000CF92DF92EF92FF920F931F936B017C01D0
:1010000081E090E0A0E0B0E04C015D0104C0880CFC
:10101000991CAA1CBB1C4A95D2F7B501A4014C012E
:101020005D0104C0880C991CAA1CBB1C2A95D2F730
:10103000482959296A297B2904C0880F991FAA1FAA
:10104000BB1F0A95D2F78A019B010C211D212E217D
:101050003F21041715072607370789F48C299D2996
:10106000AE29BF29BC01CD011F910F91FF90EF90D8
:10107000DF90CF90BF90AF909F908F900895809514
:101080009095A095B0958C219D21AE21BF21EACFEE
:101090000F93382F262F60918B0270918C028091D4
:1010A0008D0290918E02042F432F0E94F4070F911E
:1010B0000C94CD290E941E2E0E94232C811102C067
:1010C0000E94C72C0C94C70B0C94CA0B08950E9465
:1010D00073260E9466082FEF84E39CE02150804035
:1010E0009040E1F700C000000C94F32D0F931F9384
:1010F000CF93DF938C01EB010E94D416882389F1F2
:10110000BE01C8010E94A807882359F1BE01C80189
:101110000E94351F882329F1BE01C8010E94871F44
:101120008823F9F0BE01C8010E94AA208823C9F0D3
:10113000BE01C8010E949115882399F08A818823F5
:1011400039F001158CE5180751F00E3D1C4579F07A
:10115000CE01DF91CF911F910F910C94A4070E94B3
:10116000670880E0DF91CF911F910F9108950E9451
:10117000C72CF7CFCF93DF93EC0161E00E94E0072B
:10118000BE01DF91CF910C947608DF92EF92FF922F
:101190000F931F93CF93DF93E82FF0E0E25FF64FBA
:1011A000D490282F26952695269530E0F901E25512
:1011B000F64F0491877010E0082E02C01595079530
:1011C0000A94E2F701701127F901E256F64FE49014
:1011D000F12C082E02C0F594E7940A94E2F791E00E
:1011E000E922FF24F901E257F64FC491D0E002C092
:1011F000D595C7958A95E2F7C170DD2701151105D0
:1012000019F081EE0E945B23E114F10419F086EEDF
:101210000E945B238D2D0E94EF23EF2819F086EEAC
:101220000E94A923012B19F081EE0E94A923CD2B46
:1012300051F08CE2DF91CF911F910F91FF90EF90D1
:10124000DF900C94EF23DF91CF911F910F91FF90CE
:10125000EF90DF900895EF92FF920F931F93CF933B
:10126000DF93EC01162F0AE08881882309F454C02B
:10127000813009F04EC08981813099F47E0122E0ED
:10128000E20EF11C8A810E94EF23E7012196812F53
:10129000815050F3EFE9FFE03197F1F700C0000013
:1012A000F7CF823041F47E0182E0E80EF11C8A81A2
:1012B0000E945B23EACF833041F47E01E2E0EE0E30
:1012C000F11C8A810E94A923E0CF843011F021967D
:1012D000DDCF2A81229690E080E0AE014F5F5F4F24
:1012E0002053330B2A30310548F0019778F2EFE9AB
:1012F000FFE03197F1F700C00000F7CF089FB00181
:10130000099F700D1124C901860F971F2981EA01D9
:10131000E4CF0E94C508BACFDF91CF911F910F9102
:10132000FF90EF90089560E00C942B09CF92DF922C
:10133000EF92FF926C01EE24FF2420E0C114D1044F
:10134000E104F10419F0C701B60120E1C72ED82E3F
:10135000E92EFF24C114D104E104F10419F0285F3F
:10136000C701B6016B017C0154E0F694E794D79471
:10137000C7945A95D1F7C114D104E104F10419F0CE
:101380002C5FC701B6016B017C0142E0F694E79443
:10139000D794C7944A95D1F7C114D104E104F1045C
:1013A00019F02E5FC701B6019695879577956795D9
:1013B000672B682B692B09F02F5F822FFF90EF902E
:1013C000DF90CF90089508950C94E30981E008958B
:1013D0000C94E609CF93C82F0E94E4098C2FCF917B
:1013E0000C94E809CF93DF930E946B1B0E94EC0AD8
:1013F000EC01811521E5920708F042C0811530E526
:10140000930708F09DC0883E910530F5803E910518
:1014100008F092C0883A910588F4853A910508F061
:1014200084C08130910509F487C0009709F484C015
:10143000049708F081C0D0E0C0E07EC08F3B9105EA
:10144000D0F7C85AD0E0CC0FDD1FC75CDE4F099043
:10145000D881C02DD46470C08115904250F4C1155C
:1014600081E0D80708F068C0C03FD10520F3D065FF
:1014700063C0C11590E4D907F0F2DF70D06A5CC098
:10148000811525E5920700F5811534E5930708F0ED
:101490008BC0811543E5940708F073C0C11582E540
:1014A000D80708F469C0CE018370992721E030E0A5
:1014B00002C0220F331F8A95E2F7C695C69580E2D7
:1014C000C89FE001112454C0C11599E5D907A8F4BB
:1014D000C11528E5D20708F06CC0C11536E5D30761
:1014E00008F0A9CF8C2F0E94830BC82FD0E0DC2FEF
:1014F000CC27CC27DF71D0621FC0C1154AE5D407C5
:1015000008F45CC0CE0190568115904208F093CF4C
:101510008D2F8F710E94830B90E0982F882788274A
:101520009F719C012C2BE901E6CFC55AD0E0C95927
:10153000DE4FC881D0E0D064CE01DF91CF91089515
:10154000E4E096958795EA95E1F783702C2F269530
:101550002695237040E2249F90011124382B8C2F74
:101560008370C1E0D0E002C0CC0FDD1F8A95E2F7A6
:10157000C22BD32BDC68E0CFDC2FCC27C16FD06A25
:10158000DBCF8370992721E030E002C0220F331FA8
:101590008A95E2F7C695C69590E2C99FE0011124AD
:1015A000C22BD32BDA68C8CFD82FCC27C46FD06A10
:1015B000C3CFDC2FCC27C06FD06ABECF8C2F8F70EB
:1015C0000E94830B34E0D695C7953A95E1F7CF702A
:1015D0009C2FEC01D069B0CF82389105B1F1B0F405
:1015E0008133910509F475C048F48932910509F4F5
:1015F00069C08A32910509F473C008958533910555
:1016000009F459C08933910501F10895833E91058C
:10161000A9F138F4803E9105F9F0823E910549F137
:101620000895863E9105A9F1873E9105C9F1843E52
:10163000910519F52091D10421FF1FC08091D0049C
:1016400084FD14C087EE90E008952091D0042370AB
:10165000A1F080EE90E008952091D00420FD47C0D5
:101660003091D10430FF09C024FF44C090E080E0F5
:1016700004C02091D00422FDF7CF08952091D0041A
:1016800022FD3BC03091D10430FDE3CF24FFF5CFE4
:10169000EDCF2091D00423FFF0CF24FDE7CFD2CFB0
:1016A0002091D00423FD2CC03091D10431FFEECF26
:1016B00084EE90E008952091D00425FFDECF89E2EA
:1016C00090E008952091D00425FFD7CF85E390E0E6
:1016D00008952091D00426FFD0CF8AE290E00895AB
:1016E0002091D00426FFC9CF81E390E0089589E3DB
:1016F00090E0089583EE90E0089582EE90E00895E2
:1017000086EE90E008959091D00492FF06C0282FB5
:1017100028712830F9F4877F846093FF06C0282F52
:1017200028712831F1F4877E84612091D10420FF53
:1017300006C0382F38713830D9F4877F816021FF97
:1017400006C0282F28712831D1F4877E816194FD4D
:10175000877E0895282F24712430F9F68B7F8860C6
:10176000DCCF282F2471243101F78B7E8861DDCFF7
:10177000382F3171313019F78E7F8860E0CF282FF4
:101780002171213121F78E7E8861E1CF08950C947B
:10179000C60B08950C94C90BE82FF0E0E255FD4FFD
:1017A0008081089508951F93CF93DF932AE631E057
:1017B000C1E0D0E0D90150E040E08D918F3F91F041
:1017C000E82FE295EF70F0E011A18F70BE0101C02B
:1017D000660F8A95EAF7962F9095912391A382A19F
:1017E000862B82A34F5F5F4F4330510531F72D5F4A
:1017F0003F4F81E020373807E9F61092AC02109293
:10180000AE021092AD021092AF0282E00E94620C12
:10181000DF91CF911F910C945A08EF92FF920F9392
:101820001F93CF93DF93ECEAF2E06AE671E0C0E049
:1018300001E010E07B0150E040E030E0D7012D9165
:101840007D012F3FB9F0822F82958F7090E0DC01EF
:1018500090968C9190E02F7002C0959587952A956F
:10186000E2F780FD2BC0C801042E01C0880F0A9446
:10187000EAF7382B4F5F5F4F43305105F9F680810F
:101880008317F1F0308381E0C82B31966D5F7F4F75
:10189000B1E060377B0771F62C2F42E06EEA72E010
:1018A0008CEA92E00E94630C0E9464088C2FDF9106
:1018B000CF911F910F91FF90EF90089580E0D9CFC5
:1018C00080E0E2CF0895FF920F931F93CF93DF93B1
:1018D000F82E092F162FD72FC42F222349F081E08D
:1018E0008093E6010E94A82D9093E5018093E40186
:1018F0008091E6018823A1F08091E4019091E501B7
:101900000E94C02D069760F0EF2DF02FA12FBD2F64
:10191000CE0FDF2FD11DEC17FD0741F41092E60129
:10192000DF91CF911F910F91FF90089581918D9339
:10193000F2CF8091ED0180FF12C06091050185E03A
:10194000689FB00111247595679575956795603806
:101950007105A8F561157105A1F1862F089581FF24
:1019600009C06091050185E0689FB001112475955B
:101970006795EDCF6091050182FD0AC08091EC0171
:101980008823D1F09091040160910501891728F016
:1019900085E0689FB0011124DACF869FB001112441
:1019A00085E0869F9001879F300D1124692F70E09C
:1019B000C9010E94CC35CBCF65E070E0CECF8FE778
:1019C000089581E008958091ED0180FF0CC0609141
:1019D000010170E0759567957595679561157105BD
:1019E00049F1862F089581FF06C06091010170E0E2
:1019F00075956795F3CF6091010182FD0BC09091C1
:101A0000EB019923A1F060910001809101019617EB
:101A100038F0682F70E06038710500F38FE70895A3
:101A2000899FC001112470E00E94CC35F4CF61E0A1
:101A300070E0D7CF81E00895803F31F40E94990C87
:101A400081958093F1010895813F19F40E94990CCA
:101A5000F8CF823F31F40E94990C81958093F00178
:101A60000895833F19F40E94990CF8CF893F29F417
:101A70000E94E30C8093F20108958A3F21F40E94B2
:101A8000E30C8195F7CF8B3F31F40E94E30C8195F5
:101A90008093F30108958C3F19F40E94E30CF8CF72
:101AA000843F31F48091EF0181608093EF010895CC
:101AB000853F21F48091EF018260F7CF863F21F4CA
:101AC0008091EF018460F1CF873F21F48091EF0195
:101AD0008860EBCF883F21F48091EF018061E5CFF2
:101AE0008D3F31F48091ED0181608093ED01089587
:101AF0008E3F21F48091ED018260F7CF8F3FB9F7DF
:101B00008091ED018460F1CF9091F001803F59F414
:101B10008091F10187FF0DC01092F10191110BC06E
:101B20001092EC0108C0813F81F48091F1011816F8
:101B30009CF3992381F08091F2019091F301892B1C
:101B400009F064C01092EB010895823F49F497FFB9
:101B5000F0CF1092F0018091F1018111ECCFE0CF34
:101B6000833F19F41916ACF3E4CF2091F201893FB9
:101B700029F41216F4F61092F201DBCF8A3F19F421
:101B800027FFD7CFF8CF2091F3018B3F29F427FF10
:101B9000D0CF1092F301CDCF8C3F19F41216CCF3B5
:101BA000C8CF843F31F48091EF018E7F8093EF01A5
:101BB000C0CF853F21F48091EF018D7FF7CF863F25
:101BC00021F48091EF018B7FF1CF873F21F4809149
:101BD000EF01877FEBCF883F21F48091EF018F7E6B
:101BE000E5CF8D3F31F48091ED018E7F8093ED0143
:101BF000A0CF8E3F21F48091ED018D7FF7CF8F3FF5
:101C000009F097CF8091ED018B7FF0CF08950E946E
:101C1000A82D9C019091F0018091F101982B21F069
:101C20003093EA012093E9019091F2018091F30150
:101C3000982B21F03093E8012093E7018EEE91E09C
:101C40000C94D921EF92FF920F931F93CF93DF93C0
:101C500000D000D000D0CDB7DEB786E0EEEEF1E0E8
:101C6000DE01119601900D928A95E1F7E090F00166
:101C7000F090F1010091F2011091F3011092F00146
:101C80001092F1011092F2011092F3018E2D8F2922
:101C900091F08091E9019091EA010E94C02DAC0180
:101CA0009091EC01992309F43FC0809106018417BB
:101CB000150608F447C0802F812B91F08091E70131
:101CC0009091E8010E94C02DAC019091EB01992305
:101CD00009F477C0809102018417150608F47FC0CB
:101CE0008091F0019091F101892B9091F201892B63
:101CF0009091F301892B11F00E94070E86E0FE01FE
:101D00003196AEEEB1E001900D928A95E1F72696FC
:101D10000FB6F894DEBF0FBECDBFDF91CF911F91FC
:101D20000F91FF90EF900895209107018AE0289F7E
:101D3000900111242417350708F0BDCF9F5F9093C1
:101D4000EC0102C09F3FD1F7EE2059F00E94990CA0
:101D50009FEF1E140CF491E0899F802D1124809335
:101D6000F001FF2059F00E94990C9FEF1F140CF412
:101D700091E0899F802D11248093F1013091F00131
:101D8000332309F498CF2091F101222309F493CF52
:101D900045EB3403C0011124992359F09093F001CD
:101DA00045EB240390011124332339F03093F101E2
:101DB00082CF81E08093F001F3CF81E08093F10145
:101DC0007ACF209103018AE0289F900111242417E3
:101DD000350708F085CF9F5F9093EB0102C09F3FCE
:101DE000D1F7002359F00E94E30C9FEF10160CF47A
:101DF00091E0899F802D11248093F201112359F0E5
:101E00000E94E30C9FEF11160CF491E0899F802D46
:101E100011248093F3013091F201332309F460CF50
:101E20002091F301222309F45BCF45EB3403C00179
:101E30001124992359F09093F20145EB240390016A
:101E40001124332339F03093F3014ACF81E080939A
:101E5000F201F3CF81E08093F30142CF86E0EEEE12
:101E6000F1E0DF011D928A95E9F71092EC011092E2
:101E7000EB011092ED010895EF92FF920F931F93E3
:101E8000CF93DF93EB01E82FD11110C0442321F051
:101E9000F0E0E453F64FE4916E2F7E2F8E2FDF910A
:101EA000CF911F910F91FF90EF9008950D2F10E0AB
:101EB000282F30E0442329F02453364FF901249190
:101EC00030E0F6E0CF9FC0011124EFEFF0E0BF015A
:101ED0000E94B835AB018C2F90E0880F991FA5E5C3
:101EE000A49FB001A59F700D1124861B970B982FFE
:101EF000990F980FBF01601B710B629FD001639F08
:101F0000B00D729FB00D11248B2F9D9FB001112435
:101F1000672F7727EF01C61BD70BBE01629FE00139
:101F2000639FD00D729FD00D11247F01E91AF10833
:101F3000E09EB001E19E700DF09E700D1124672FA0
:101F40007727E61BF70BE29F8001E39F100DF29FBE
:101F5000100D1124E12F722F4230510599F048F4F1
:101F60004115510569F04130510581F0EB2F8D2F5E
:101F700007C04430510569F080F046305105B1F793
:101F80006E2F8DCFE22F7B2F812FFACFE22F7D2F67
:101F9000F7CFEB2F822F712FF3CF7B2F822FED2FD7
:101FA000EFCF41E00C943C0F08950C94D10FCF93E8
:101FB000DF93762FE901682F842F0E94D50F798354
:101FC00068838A83DF91CF910895453608F044E60F
:101FD0000C94D70F8091B002982F9E7F61F481708E
:101FE00082608093B0028091B302853618F084E657
:101FF0008093B30208958233B0F381708063F1CF90
:1020000088E090E00C946536CF92DF92EF92FF92D9
:102010006B017C010E94EA0FB701A60188E090E005
:10202000FF90EF90DF90CF900C9483366091B002D8
:102030007091B1028091B2029091B3020C9404109D
:10204000E0EBF2E083E0808311828FEF828384E60D
:102050008383148260817181828193810C94041046
:102060008091B00280FF02C08695089580E00895B7
:102070009091B402933018F49F5F9093B402882338
:1020800051F06091B0027091B1028091B2029091D2
:10209000B3020C940410089581E00C9438109091D0
:1020A000B402992319F091509093B402882351F00F
:1020B0006091B0027091B1028091B2029091B3022E
:1020C0000C940410089581E00C944F108091B40298
:1020D00008958093B402662351F06091B00270912C
:1020E000B1028091B2029091B3020C940410089551
:1020F00060E00C9469108091B10208958091B20261
:1021000008958091B302089521E030E001C0220FCC
:102110008A95EAF790910502922381E009F480E024
:10212000089570E00C94F9156F927F928F929F92B0
:10213000AF92BF92CF92DF92EF92FF920F931F93D5
:10214000CF93DF9300D000D00F92CDB7DEB7709061
:102150000C019091B00290FF26C0C090F801D09081
:10216000F901C114D10489F580910B0133E0839FFB
:10217000C0011124672D8B549D4F0E9491100F9028
:102180000F900F900F900F90DF91CF911F910F91B3
:10219000FF90EF90DF90CF90BF90AF909F908F9087
:1021A0007F906F90089580910D0120910E0133E092
:1021B000839FF0011124EB54FD4F821770F61182BA
:1021C000108212828F5F3396F8CF90FFCDCFF12C23
:1021D000E12C43E0642E8E2D0E948410882309F4A4
:1021E0003CC0F701EE0FFF1FEC0DFD1DA590B49054
:1021F000A114B10409F4B8CF45E050E0B501CE0117
:1022000001960E94403609810F3F39F18A81800F83
:102210009927991F8630910514F085E090E04C01D4
:10222000880C991C880D991D9C012B543D4F490128
:10223000069D800111240B541D4F0815190520F02F
:1022400035E0A30EB11CD8CF98014D816C818B81F4
:102250000E94E50F0D5F1F4FF0CF8FEFE81AF80ACD
:1022600028E0E216F10409F0B6CF7ECF9091B002DB
:1022700090FF14C090910D0120910E0133E0939FC7
:10228000F0011124EB54FD4F921710F00C949410B0
:102290008183608342839F5F3396F6CF0895CF9307
:1022A000DF9300D00F92CDB7DEB79091B00290FFD0
:1022B0000AC09E012F5F3F4F0E94E50F4B8169814D
:1022C0008A810E9436110F900F900F90DF91CF916D
:1022D0000895CF93DF93EC01E0EBF2E0438162815C
:1022E0008C810E944F118C818F5F8C83DF91CF9105
:1022F0000895AF92BF92CF92DF92EF92FF920F9329
:102300001F93CF93DF9300D00F92CDB7DEB7182F76
:10231000F62E042FE22E8091B00280FF29C0E82F14
:10232000E695AE2FB0E0A059BE4F9C91909303026A
:102330008E7F823059F59E012F5F3F4F812F0E9483
:10234000E50F4B8169818A810E9436111093B10299
:10235000F092B2020093B302EE2051F06091B0020D
:102360007091B1028091B2029091B3020E94041068
:102370000F900F900F90DF91CF911F910F91FF90D1
:10238000EF90DF90CF90BF90AF900895923019F406
:102390001091B102DBCF9530D9F39F30B9F6EF50F1
:1023A0008E2F8170D82EE695F0E0E953F64FA59078
:1023B000B490C12CBB2460910F01C61618F00E9486
:1023C0009410C4CF2C2D30E0A29EC001A39E900D8E
:1023D000B29E900D112470E00E94B835812FD1106B
:1023E00013C0860F40910D01420F532F511D9A01CA
:1023F000220F331F240F351F2B543D4F402F6F2DBD
:102400000E94E50FC394D7CF861BECCFE0EBF2E040
:102410009181282F4381628188E0890F0C94791182
:1024200081E00C940612E0EBF2E09181282F4381C9
:10243000628188EF890F0C94791181E00C9413125A
:10244000E0EBF2E0628128E0620F08F46FEF282FE2
:10245000438181810C94791181E00C942012E0EB8E
:10246000F2E0628128E0621B08F460E0282F4381DB
:1024700081810C94791181E00C942F12E0EBF2E051
:10248000438128E0420F08F44FEF282F62818181B9
:102490000C94791181E00C943E12E0EBF2E0438160
:1024A00028E0421B08F440E0282F628181810C94CF
:1024B000791181E00C944D1220E00C947911EF9287
:1024C000FF921F93CF93DF93EC0110E0EE24EA9488
:1024D000F12C60910F01161770F00E9494109A81F0
:1024E0008C8190FF27C08F5F8C83DF91CF911F91EC
:1024F000FF90EF90089520910D01422F410F552735
:10250000551FCA019A01220F331F280F391F2B5460
:102510003D4F70E0C7010E94CC35962F8C814091D1
:10252000B3026091B202199F800D11240E94E50F41
:102530001F5FCFCF8150D8CF0F931F93CF93DF93DF
:1025400080910D0190910E0123E0829FF0011124F2
:10255000EB54FD4F891740F1C0E0D3E060910F01CB
:10256000C61740F10E949410209109018091F40156
:10257000820F8093F40190910A01920F90930A01C7
:10258000191654F4082E000C990B40910F0141507C
:10259000550B841795071CF0219520930901DF91B5
:1025A000CF911F910F9108951182108212828F5F37
:1025B0003396D0CF0C2F10E070E0C8010E94CC35CC
:1025C00020910D01820F482F50E02091F401022E3E
:1025D000000C330B02171307BCF020910A01022EE6
:1025E000000C330B201731077CF08D9F90011124D4
:1025F0002B543D4F4091B3026091B2028091B102E1
:102600000E94E50FCF5FAACFFA01EE0FFF1FE40F84
:10261000F51FEB54FD4F118210821282F3CF8F927F
:102620009F92AF92BF92CF92DF92EF92FF920F9361
:102630001F93CF93DF93EC014C81042F10E098019E
:10264000D8010E9417369B01AC010E942D364B0128
:102650005C01E0E2F0E0E01BF10BA5E5B0E0AC01CD
:102660009B010E942D366B017C019F01DF010E94BE
:102670000F369B01AC010E9438369B01AC01280D3E
:10268000391D4A1D5B1DC701B6010E94E035F22EBF
:10269000822F90E039E23F1560F143E0249F9001E2
:1026A000112435952795122F109500E085E5E82E29
:1026B000EF1880910F01081758F10E9494109C8127
:1026C00081E0992319F0903219F48FEF809308017B
:1026D00080910801890F8C83DF91CF911F910F9119
:1026E000FF90EF90DF90CF90BF90AF909F908F9032
:1026F000089525E530E0B901681B790B9B01220F95
:10270000331F260F371F37FFCCCF2F5F3F4FC9CF67
:102710008E2D01FD8F2D20910D01622F600F7727E7
:10272000771F9B01220F331F260F371F2B543D4F5E
:10273000412F6091B2020E94E50F0F5FBACFE0EB2C
:10274000F2E080818E7F80836081718182819381BC
:102750000E940410109204022FEF80E792E02150B3
:1027600080409040E1F700C000000C949410E0EB32
:10277000F2E080818E7F8083109204022FEF80E749
:1027800092E0215080409040E1F700C000000C949E
:1027900094101092040280910102811114C081E012
:1027A000809301028091B002817080930002809139
:1027B000F70180959091050289238093050210927C
:1027C000F7010C94B71308956091B002669570E01C
:1027D0004BE050E080E191E00E944936892B19F4EA
:1027E00081E0809304020E94A82D9093FB018093C6
:1027F000FA0108959091B00290FF35C09170811157
:1028000028C092609093B002662351F06091B002AC
:102810007091B1028091B2029091B3020E940410B3
:102820006091B002669570E04BE050E080E191E08D
:102830000E944936892BA1F01092040281E0809316
:10284000FD014091B3026091B2028091B1020C94FB
:102850005C12893110F09063D5CF880F982BD2CFBE
:102860000E94E413EBCF0895682F9091B0029695E3
:1028700081E0890F893108F081E00C94FA1381E03E
:102880000C943414682F9091B00296958FEF890FB5
:1028900009F488E10C94FA1381E00C94421461E08D
:1028A0000C94FA13E0EBF2E08081816080838695DE
:1028B0000C944F148091B00280FD0C949F130C94E3
:1028C000521460E00C94FA138091020281112EC020
:1028D0000E94232C811104C00E94C72C0E9420104A
:1028E0000E9400106093B0027093B1028093B20214
:1028F0009093B3026E7F61F40E9420100E9400103A
:102900006093B0027093B1028093B2029093B302CD
:102910000E94EA0F109204028091B00280FF03C06F
:1029200086950E94611481E0809302020895E0EB95
:10293000F2E080818160808386950C94611421E0AF
:1029400030E0A90102C0440F551F8A95E2F7CA0181
:1029500020910502662361F0822B8093050280910D
:102960000402811108C08091B00286950C94611414
:1029700080958223F2CF08951F93CF93DF93182F72
:10298000EB0161E00E949F1421E030E001C0220FC2
:102990001A95EAF78091F701822B8093F7010E9444
:1029A000A82D8C0F9D1F9093F6018093F501DF9168
:1029B000CF911F910895CF93DF938091F7018823E2
:1029C00011F10E94A82D2091F5013091F601821B92
:1029D000930B8F3F9F47B8F4D0E0C0E08091F701A0
:1029E00090E00C2E02C0959587950A94E2F780FF3F
:1029F00004C060E08C2F0E949F142196C830D1053E
:102A000069F71092F701DF91CF91089510920102BA
:102A10008091000281110E9497140C94E4130F938B
:102A20001F93CF93DF93809104028823B9F18091A3
:102A30000302E091B002E695E81BE093FC018230CE
:102A400099F5F0E0EC53F64FE491CE2FD0E009E693
:102A500011E18091FD01882361F01092FD010E9437
:102A6000A82D9093FB018093FA011092FF01109220
:102A7000FE010E94A82DE091FA01F091FB018E1B4E
:102A80009F0B8F3F9F4750F4CE0FDF1FD093FB016A
:102A9000C093FA018AEF91E0F8010995DF91CF9197
:102AA0001F910F910C94DB14853051F4E695F0E002
:102AB000EF53F64FE491CE2FD0E00FE512E1C9CFEE
:102AC0008B3049F4F0E0E254F64FE491CE2FD0E0A1
:102AD0000CE912E1BECFC8E2D0E00FE013E18E3086
:102AE00009F4B7CFC0EDD7E004ED1FE0B2CFFA0193
:102AF000811101C0FB010994CF93DF93C82FD62F1A
:102B00000E9430108C1740F00E9430108D1720F476
:102B1000DF91CF910C943F148C2FDF91CF910C94C7
:102B20004F140F931F93CF938C01FB01C281CC23D1
:102B300009F45DC00E94792B8272F801E25CFC45C9
:102B4000E431F10538F4E955F94C0C9402360E9451
:102B50005A14C0E08C2FCF911F910F9108954CE42F
:102B600054E16FE374E10E947715F3CF4FE354E132
:102B70006CE474E1F8CF4DE152E160E172E1F3CF32
:102B800040E152E16DE172E1EECF4BE352E16CE2E4
:102B900072E1E9CF4CE252E16BE372E1E4CF49E547
:102BA00052E16AE472E1DFCF4AE452E169E572E1A1
:102BB000DACF43E650E16CE470E1D5CF4CE450E16C
:102BC00063E670E1D0CF81E00E944F14C2CF64E091
:102BD00082E00E947C15BDCF6AE085E0FACF6DE00F
:102BE0008BE0F7CF8EE0F0CF68E18FE0F2CFC1E06D
:102BF000B1CF869A41B34F7B51B35064EFB7F8948D
:102C00009B01220F331F260F371F280F391F28174C
:102C1000390741F4EFBF8FE594E00197F1F700C069
:102C200000000895DC016D91CD0178E051BB0000FA
:102C300000C067FF41BB660F000000C000C000C0BD
:102C400041BB00C07A9591F7E2CF84988C9A859821
:102C50008D9A8FB1829581707D9905C090E0892B06
:102C600080930802089592E0FACFE0910802EE0FF7
:102C7000EE0FE09308024FB144FB882780F94FB173
:102C800045FB222720F945FF02C022E030E0822BDD
:102C9000E82BE0930802EF70F0E0E757FE4F8081E9
:102CA00090910702890F8093070220E0823054F050
:102CB000809106028F5F8093060260E080E00E94B0
:102CC000BE1921E0809107028F3F54F480910602E3
:102CD00081508093060261E080E00E94BE1921E0ED
:102CE00080910702082E000C990B62E070E00E94B0
:102CF000CC3580930702822F089582E290E00E94F3
:102D00005D368A3389F483E290E00E945D36833D2C
:102D100059F484E290E00E945D3691E08D3D09F027
:102D200090E0892F8170089580E0FCCFCF93C82F69
:102D30006FEF81116AE382E290E00E9471366FEFDB
:102D4000C11163ED83E290E00E9471366FEFC11113
:102D50006DED84E290E0CF910C94713680E00E949A
:102D600096160C941D2C089585E290E00E945D3625
:102D7000682F70E090E080E0089585E290E00C9488
:102D800071360E94B3160E947D1681110CC060E05E
:102D900070E0CB010E94BD160E94BC1A0E94DE1B8F
:102DA00081E00C9496160895CF93FB01C281CC2349
:102DB00009F19C0122513F452031310520F5825116
:102DC0000E94EE1BC0E08C2FCF91089581E00E94FD
:102DD000F32943E062E081E00E944808F3CF81E0FC
:102DE0000E94142A43E062E081E00E944808EBCF91
:102DF00082E0F6CF8031FFE59F0789F381319F455F
:102E0000B9F3C1E0E0CF8031EFE59E07F9F28131FF
:102E10009F45C9F682E0DBCF2FEFFC0120830895A8
:102E2000CF93DF93EC0188818138A9F028F48038B2
:102E300071F0DF91CF910895823881F08338C9F71E
:102E40000E947B1089830E947E108A83F2CF0E94A9
:102E500081108983EECF0E943010FBCF0E94661054
:102E6000F8CFCF93DF93EC0188818138E1F028F42B
:102E7000803869F0DF91CF910895823811F183385D
:102E8000C9F70E948110482F6A81898108C0D981C1
:102E90000E947E10C82F0E947B104D2F6C2FDF9157
:102EA000CF910C945C1289810E94611489818111F7
:102EB00004C0DF91CF910C94B713DF91CF910C94A4
:102EC00097148981DF91CF910C9478101F93CF9341
:102ED000DF93EC01162F988120910B0230910C02A8
:102EE000232B79F09E3F09F068C08981833020F060
:102EF0008550833008F061C0612FCE010E94C71851
:102F00005CC09E012F5F3F4F993009F4ADC0E8F4DB
:102F1000943009F48CC058F4923009F455C008F08C
:102F20007AC0913009F446C08FEF888346C096304E
:102F300009F493C008F486C0973009F491C0983022
:102F400099F7C9010E94101738C0903109F4A8C040
:102F500028F59D3009F48BC030F49C3029F70E948D
:102F6000871B89832AC09E3009F489C09F30E1F60F
:102F700080911B0190911C01892BF9F06B8170E00D
:102F80006D317105D0F489819A81AE014C5F5F4F3C
:102F90009827892798270E94B31B0FC0923109F404
:102FA00085C008F480C0933109F491C09E3F09F0B8
:102FB000BBCFA2CF198289E08A83612FCE01DF9136
:102FC000CF911F910C94DF2E8981823069F083307C
:102FD00071F08130D9F40E94B42D0E9408366A83C2
:102FE0007B838C839D83E9CF0E94B416F6CF8091BA
:102FF0001B0190911C01892B01F380E00E94CC0BF6
:103000008A8381E00E94CC0B8B83D7CF612FCE01C6
:103010000E940C17D2CF89818230C1F76A817B81EF
:103020008C819D810E9408360E94BD16C6CF4B81BF
:103030006A8189810E94161A9827892798279D837B
:103040008C83BBCF2C813D813227232732274B81B4
:103050006A8189810E94381AB0CF0E94BC1AADCF14
:10306000C9010E943117A9CF0E941610A6CF0E9455
:10307000891B9827892798279A8389839ECF6B81FC
:1030800070E06D31710508F098CF89819A81AE01A9
:103090004C5F5F4F9827892798270E948C1B8DCF04
:1030A0000E94DE1B8ACF0E94041A5BCF6B8170E006
:1030B0006D31710508F081CF89819A81AE014C5F35
:1030C0005F4F9827892798270E94141B76CF6B8122
:1030D00070E06D31710508F070CF89819A81AE0181
:1030E0004C5F5F4F9827892798270E94391B65CF2F
:1030F0000F931F93CF93DF9300D000D000D0CDB7B4
:10310000DEB78C019093C5028093C4021B821C829F
:103110001D821E828EEF89838A8381E08B830E94C9
:10312000A82D81609D838C83011580E2180708F526
:10313000C8010E947A078FE39CE90197F1F700C06C
:1031400000000E94A82D81609D838C831B82011545
:1031500090E21907A8F4C8010E948F0726960FB6BF
:10316000F894DEBF0FBECDBFDF91CF911F910F91BD
:103170000895BE016F5F7F4FC8010E947608DBCFC4
:10318000BE016F5F7F4FC8010E947608E7CFEF92C4
:10319000FF920F931F93CF93DF93CDB7DEB728979E
:1031A0000FB6F894DEBF0FBECDBF8C01603219F5AB
:1031B000DC011196EC911197E830E8F4F0E0E55469
:1031C000F94C0C94023688E0E1E3F1E0DE0111965F
:1031D00001900D928A95E1F783E0F80180831182D6
:1031E0001282138288E0FE013196D8011496019074
:1031F0000D928A95E1F728960FB6F894DEBF0FBEC0
:10320000CDBFDF91CF911F910F91FF90EF90089567
:1032100080EB8C9311961C92119712961C92129728
:1032200013961C92E8CFFC018381682F70E0762F03
:1032300066278281860F972F911D092E000CAA0BFD
:10324000BB0B25E0880F991FAA1FBB1F2A95D1F73A
:10325000AC01BD01405E5F4F6F4F7F4F481759076C
:103260006A077B0740F2803B9105A105B10518F67E
:10327000413B51056105710520F040EB50E060E0F5
:1032800070E0481B590BBC016453754FC801289668
:103290000FB6F894DEBF0FBECDBFDF91CF911F9167
:1032A0000F91FF90EF900C9440361296FC9012977D
:1032B0001396EC9040E06E2D8F2D0E94601A982797
:1032C00089279827F8019183808341E06E2D8F2D07
:1032D0000E94601A982789279827D80113969C93F3
:1032E0008E93129788CFFC012581368132272327C0
:1032F000322744816381828128960FB6F894DEBF1D
:103300000FBECDBFDF91CF911F910F91FF90EF9036
:103310000C948B1A40E250E06FEF70E00E9456363A
:1033200080911B01D8018C9380910B0211968C9394
:1033300062CF81E090E090930C0280930B0282E3D5
:1033400090E090930A028093090228960FB6F894B1
:10335000DEBF0FBECDBFDF91CF911F910F91FF90C8
:10336000EF900C94A82D80911B01F801808380912F
:103370000B0281838091090282833DCFCF92DF923D
:10338000EF92FF920F931F93CF93DF93182F062F87
:10339000C0908B02D0908C02E0908D02F0908E0253
:1033A00080918F0290919002A0919102B09192022F
:1033B000C82AD92AEA2AFB2ACFE1D0E0D701C601E0
:1033C0000C2E04C0B695A795979587950A94D2F7C9
:1033D00080FF12C0402F612F8C2F0E94601A813015
:1033E000910551F0DF91CF911F910F91FF90EF90D8
:1033F000DF90CF900C947818219700F7402F612F21
:1034000080E00E94601AEECF84E0089550E0440FFF
:10341000551F96E0699F400D511D11249CE0899F26
:10342000400D511D1124CA01869608950F931F93D4
:10343000CF93DF938430C8F46230B8F44330A8F4FB
:103440000E94061A8C010E945D36C82FD0E0DC2F46
:10345000CC27C80101960E945D369E01282BC90128
:10346000DF91CF911F910F91089590E080E0F8CF08
:103470000F931F93CF93DF93E9018430E0F4623020
:10348000D0F44330C0F421153C4531F420911B01A8
:1034900030911C01232B79F00E94061A8C016D2FAC
:1034A0000E9471366C2FC8010196DF91CF911F9158
:1034B0000F910C947136DF91CF911F910F91089568
:1034C0000F931F93CF93DF93843010F5611120C0C9
:1034D0004230F0F424E0829F8001112450E0440F38
:1034E000551F040F151F0A5A1F4FC8010E945D3651
:1034F000C82FD0E0DC2FCC27C80101960E945D3692
:103500009E01282BC901DF91CF911F910F91089542
:1035100090E080E0F8CF0F931F93CF93DF93890162
:10352000843028F5611123C0423008F521153C454F
:1035300031F420911B0130911C01232BC1F094E048
:10354000899FE001112450E0440F551FC40FD51F7F
:10355000CA5ADF4F612FCE010E947136602FCE0113
:103560000196DF91CF911F910F910C947136DF91ED
:10357000CF911F910F910895CF92DF92EF92FF921A
:103580000F931F93CF93DF93C0901B01D0901C012A
:1035900081E090E090931C0180931B010EED18E0F8
:1035A000C0E07801D0E0F701259134914D2F60E023
:1035B0008C2F0E94381A82E0E80EF11CDF5FD330B6
:1035C00091F7780186E0E80EF11CD0E0F701259133
:1035D00034914D2F61E08C2F0E94381A82E0E80E62
:1035E000F11CDF5FD33091F721E030E040E060E094
:1035F0008C2F0E948B1A21E030E041E060E08C2F9C
:103600000E948B1ACF5F045F1F4FC43051F6D092D7
:103610001C01C0921B01DF91CF911F910F91FF9070
:10362000EF90DF90CF900895EF92FF920F931F934A
:10363000CF93DF93EC018A017C01E60EF71ECE01E9
:103640008696CE15DF0539F4DF91CF911F910F914A
:10365000FF90EF900895C033D10540F40E945D368D
:10366000F80180830F5F1F4F2196E9CFF801108288
:10367000F9CFCF92DF92EF92FF920F931F93CF93E8
:10368000DF938C016A01C09780F480E390E0801B97
:10369000910B8617970748F07801E60EF71EE801B0
:1036A000CE018696CE15DF0549F4DF91CF911F91AB
:1036B0000F91FF90EF90DF90CF900895C033D10528
:1036C00040F4FE01E01BF10BEC0DFD1D60810E943A
:1036D00071362196E5CF462F20910B0230910C02D6
:1036E000232B91F47E3F39F46E3F71F48091C40234
:1036F0009091C5020895843038F4723028F4633014
:1037000018F4672F0C94161A90E080E0089580E179
:1037100008958AE993E00895EF92FF920F931F9323
:10372000CF93DF93EC018A017C01E60EF71ECE01F8
:103730008A599F4FCE15DF0539F4DF91CF911F9144
:103740000F91FF90EF900895CA3923E0D20740F41B
:103750000E945D36F80180830F5F1F4F2196E7CFEF
:10376000F8011082F9CFCF92DF92EF92FF920F9380
:103770001F93CF93DF937C016A018C01060F171F03
:10378000EC01CE018A599F4FC017D10749F4DF9150
:10379000CF911F910F91FF90EF90DF90CF90089500
:1037A000CA3923E0D20740F4FE01EE19FF09EC0DFF
:1037B000FD1D60810E9471362196E3CFCF93DF9388
:1037C000C6E6D0E060E0CE010E9471362196C115B8
:1037D00084E0D807B9F7DF91CF910895BF92CF92D7
:1037E000DF92EF92FF920F931F93CF93DF9300D05E
:1037F00000D0CDB7DEB7F82E2FE0281740F08FEFBE
:1038000093E00E945D3606E610E08823D1F00F9029
:103810000F900F900F90DF91CF911F910F91FF901C
:10382000EF90DF90CF90BF900895011544E014070A
:1038300071F3C8010E945D36811101C0FA940F5FD7
:103840001F4FF110F2CF19821A821B821C82BB24F7
:10385000BA9478015FEFE51AF50AC8010E945D3657
:1038600089831A82882399F2813009F047C0680160
:1038700082E0C80ED11CC7010E945D36E82E8A8303
:10388000882329F2C6010E945D36F82E8FEF8E0D37
:10389000833068F46801E3E0CE0ED11CFB82FF2088
:1038A00021F0CE0101960E9493098601D2CFF4E067
:1038B000EF12FBCF680124E0C20ED11CC8010396B1
:1038C0000E945D36FF2009F4A2CF882309F49FCF20
:1038D0008150990BB89E9001B99E300D11244F2D47
:1038E0004150550BCA01820F931F0197F0F2EFE987
:1038F000FFE03197F1F700C00000F7CFCE0101964D
:103900000E9493096701D1CFCF92DF92EF92FF928D
:103910000F931F93CF93DF936C017B0164E670E0FC
:1039200088E70E94DA20EC0197FD12C010E000E069
:10393000F601E00FF11F849164E670E00E943621E9
:10394000EC01892B29F40F5F1F4F0E151F0581F71E
:103950000E94B921CE01DF91CF911F910F91FF906D
:10396000EF90DF90CF900895E6ECF2E080E092E0F7
:10397000DF019C011D9221503040E1F7F093CB0410
:10398000E093CA048FEF9FEF90933302809332024B
:1039900008950E94220780932E0280FD0FC080E8C8
:1039A00080932D020E94D4206DE070E083E99BE0BB
:1039B0000E94841C892B21F080E0089580E2F0CFE2
:1039C00080912E0263E070E081FD26C080E99BE0DB
:1039D0000E94841C892B81F76DE070E080E89BE0F9
:1039E0000E94841C892B41F70E94B42D605A7541B6
:1039F0008F4F9F4F6093C6047093C7048093C80491
:103A00009093C9040E94B41C81E08093310280939A
:103A1000300210922F0208958DE89BE0D9CF2091BB
:103A20002D0236E0839FC0011124629F800D911DFD
:103A30001124811522E0920714F090E080E08A536F
:103A40009D4F9093CB048093CA040895CF93DF9346
:103A50002091CA043091CB04265C3240A901460F64
:103A6000571F4130524020F060E072E0621B730B40
:103A70004091320250913302FC01C901620F731F61
:103A8000C1E0D0E08617970738F050933302409397
:103A90003202DF91CF9108952491DC01AA53BD4FEA
:103AA0003C91321781F02C939C01A5E03695279527
:103AB000AA95E1F7DE0102C0AA0FBB1F2A95E2F723
:103AC0009D014A2B532B01963196DCCF8091310218
:103AD000811103C08091300208950E94B42D605A74
:103AE00075418F4F9F4F6093C6047093C7048093B6
:103AF000C8049093C904809130028111EBCF62E039
:103B000070E08EE79BE00E94841C892B19F781E00E
:103B100080933002DFCF2F923F925F926F927F921D
:103B20008F929F92AF92BF92CF92DF92EF92FF92CD
:103B30000F931F93CF93DF9380913102882369F015
:103B400020913202309133022115310531F08091FC
:103B50002F0261E070E0882399F0DF91CF911F91EF
:103B60000F91FF90EF90DF90CF90BF90AF909F901C
:103B70008F907F906F905F903F902F9008958F5F10
:103B8000082F10E01B01082E02C0220C331C0A94DF
:103B9000E2F7A90142215321452B89F390912E028E
:103BA00090FD44C08295880F807680931F01980114
:103BB000369527953695279520932201815E80932F
:103BC00020011092230124E630E047E050E06DE14F
:103BD00071E088E70E946521892B09F0BECFA8011A
:103BE00025E0440F551F2A95E1F780912E0280FDB4
:103BF0002BC04A535D4F04E610E020E230E060E461
:103C000088E70E948C21892B09F0A7CF0E94661DAE
:103C1000E101C095D0958091320290913302C82382
:103C2000D923D0933302C093320297CF880F880FE5
:103C3000880F80931F0110922201895F80932001D9
:103C400083E080932301BFCFEDE0F2E080E2DF016B
:103C50001D928A95E9F7ADE9B1E009E911E081EA41
:103C6000C82E81E0D82E97E0592E772473948D9139
:103C7000E80129918E01240F352F311D2A533D4F24
:103C8000E82FF0E0E35FFD4F90E080E0652C681ADC
:103C9000872C082E01C0880C0A94EAF77901A12C20
:103CA000E701B9907E01B820662D6A196770962EDB
:103CB000062E000C770BDB2D01C0DD0F9A94EAF77E
:103CC0007195619571096770772701C0B6946A95FF
:103CD000EAF7BD2A6081962E9B289082A39468E023
:103CE000A612DECF019631968830910579F6CA1674
:103CF000DB0609F0BCCF04E610E020E230E04DE046
:103D000052E07DCF8091300290913102911103C039
:103D100091E089270895882369F062E070E08CE7DC
:103D20009BE00E94841C892B19F080913002089539
:103D30001092300280913002EBCF0F931F9380914D
:103D40003102882319F160E080E00E940F1D0E947B
:103D500024070E948B1D809130028823B9F00E94B5
:103D6000B42D0091C6041091C7042091C80430916D
:103D7000C904601B710B820B930B6F3F7F4F8F4FFA
:103D80009F4720F41F910F910C94821E1F910F9159
:103D900008950F931F93CF93DF93C42FD22FFC016D
:103DA00082818823C9F0409336020E94A82D909307
:103DB00035028093340280E28C0F883008F050C0C6
:103DC000C77081E001C0880FCA95EAF7DF91CF91F3
:103DD0001F910F910C94F72310913602141335C0E4
:103DE00080913402909135020E94C02D883C91054B
:103DF00060F5C0E2CD0F1D17B9F080E2810F883069
:103E000040F4177081E001C0880F1A95EAF70E940C
:103E1000FE23C83048F481E09D2F977001C0880FC1
:103E20009A95EAF70E94F723802F0E94EF23C8306B
:103E3000B8F4D77081E001C0880FDA95EAF7DF9116
:103E4000CF911F910F910C94FE2380E28C0F88304C
:103E500038F4C77081E001C0880FCA95EAF7EFCF48
:103E6000DF91CF911F910F9108950F939C01CB018A
:103E7000233F4CE5340759F1A8F4283DFCE53F0702
:103E800001F1293D4CE53407D1F1273D3C4591F442
:103E900006E221EE41EE67ED7CE50E94C91E80E05E
:103EA0000F910895253FFCE53F07E9F0B0F0263F6C
:103EB0003C45F9F0FC018281882339F110923602E9
:103EC000EFCF07E225EE45EE68ED7CE5E6CF06E2B2
:103ED00021EE40EE63EF7CE5E0CF07E225EE44EE15
:103EE00064EF7CE5DACF06E221EE42EE65EF7CE599
:103EF000D4CF07E225EE46EE66EF7CE5CECF08E2B2
:103F000021E045EE69ED7CE5C8CF81E0C9CFCF93D4
:103F1000DF93EC01FB018281882309F419C1C230CF
:103F2000FCE5DF07C0F1C6319CE5D90730F09E0102
:103F30002A5F3C452930310570F50E94362C90935C
:103F4000D1048093D004C031ECE5DE0709F4CFC082
:103F500008F05BC0C8308CE5D80709F4B6C088F516
:103F6000C430ECE5DE0709F4A8C0C0F4C2308CE52B
:103F7000D80709F49CC08091D0048260C330DC452E
:103F800009F498C08091D0049091D1040E94442CEF
:103F90000E94732680E0DF91CF9108958091D00434
:103FA0008061C630ECE5DE0709F484C08091D0045E
:103FB0008860C730DC4508F47DC08091D004806201
:103FC00079C0CC308CE5D80709F489C070F48091B1
:103FD000D0048C60CA30ECE5DE0709F46BC008F44D
:103FE00078C08091D0048E7F65C0CE308CE5D80734
:103FF00009F479C08091D0048B7FCF30DC4508F480
:1040000059C08091D0048F7E55C0CB3FECE5DE07D0
:1040100009F457C030F5C3318CE5D80709F46FC0F7
:1040200078F4C131ECE5DE0709F465C0C231DC4546
:1040300009F0A8CF0E9473268091D0048F773AC0F0
:10404000C5318CE5D80709F462C008F476C08091C8
:10405000D1048160CA3FDC4509F094CF8093D1043C
:1040600091CFCF3FFCE5DF0709F44DC088F4809184
:10407000D1048D7FCD3F9CE5D90781F38091D10498
:104080008E7FCE3FDC4550F38091D1048360E6CF34
:10409000C130FDE5DF0709F459C008F444C080E0F1
:1040A000C230DD4509F06ECF0E94C92C6BCF8091E4
:1040B000D00481608093D00465CF8091D004846067
:1040C000F9CF8091D1048260C9CF8091D0048064FF
:1040D000F1CF0E9473268091D0048068EBCF80914D
:1040E000D0048D7FE7CF8091D004877FE3CF80918C
:1040F000D0048F7DDFCF8091D0048F7BDBCF809188
:10410000D004837FD7CF8091D1048C7FA7CF8091BB
:10411000D00482FB992790F921E0922790FB82F945
:1041200090FB83F9C7CF8091D104982F909591701F
:104130008E7F892B90FB81F991CF0E9473269091FD
:10414000D004892F97FB87F98058B4CF81E0ACCF9A
:1041500081E021CFCF93DF93EB0186319C4511F5B0
:104160000E94792B9A81992399F08A7A91E009F437
:1041700090E090933702811109C089E20E94542B8C
:104180000E94B82B80E0DF91CF91089585E3F6CFB0
:1041900080913702811104C089E20E945B2BF0CF2D
:1041A00085E3FBCF81E0EFCF1092B9008CE08093E4
:1041B000B8000895EF92FF920F931F93CF93DF9370
:1041C000182FEB011092BC0084EA8093BC000E947F
:1041D000A82D7C018091BC0087FF27C08091B90089
:1041E000887F883029F08091B900887F8031D9F5A7
:1041F0001093BB0084E88093BC000E94A82D8C0122
:104200008091BC0087FF24C02091B900287F90E0F6
:1042100080E02831B1F081E090E0203411F490E0AA
:1042200080E09195819591090CC0CF3FDC0791F218
:104230000E94A82D8E199F098C179D0758F28EEFAA
:104240009FEFDF91CF911F910F91FF90EF90089515
:10425000CF3FDC07A9F20E94A82D801B910B8C1781
:104260009D0770F2ECCF8FEF9FEFEBCF0F931F9373
:10427000CF93DF93EB018093BB0084E88093BC0075
:104280000E94A82D8C018091BC0087FF11C0209155
:10429000B900287F81E090E0283211F490E080E0BE
:1042A000919581959109DF91CF911F910F9108957B
:1042B000CF3FDC0741F30E94A82D801B910B8C1788
:1042C0009D0708F38EEF9FEFEECFCF92DF92EF9234
:1042D000FF920F931F93CF93DF936B018A017901B4
:1042E000B9010E94DA20E6010C0D1D1DC017D1078F
:1042F00061F424E92093BC00DF91CF911F910F91CD
:10430000FF90EF90DF90CF90089597FDF2CFB70127
:1043100089910E943621EACFCF92DF92EF92FF92ED
:104320000F931F93CF93DF93C62F6A017901B801D2
:104330000E94DA2097FD0CC0B8018C2F0E94362114
:10434000E601EC0CFD1CCE15DF0511F097FF0CC04B
:1043500024E92093BC00DF91CF911F910F91FF9032
:10436000EF90DF90CF900895B80189910E94362197
:10437000EACF84E98093BC00089590933D02809336
:104380003C020895E0913C02F0913D02309721F00B
:104390000190F081E02D099480E00895E0913C02C5
:1043A000F0913D02309721F00280F381E02D0994D5
:1043B0000895E0913C02F0913D02309739F022E0FF
:1043C000DC012C930480F581E02D0994089520915F
:1043D0003A0230913B022817390771F090933B0263
:1043E00080933A02E0913C02F0913D02309721F037
:1043F0000680F781E02D09940895209138023091CC
:1044000039022817390771F09093390280933802E6
:10441000E0913C02F0913D02309721F00084F1855B
:10442000E02D099408950E94B42D60934902709381
:104430004A0280934B0290934C0260934502709322
:104440004602809347029093480208950E94B42D3B
:104450006093490270934A0280934B0290934C02FE
:10446000609341027093420280934302909344020E
:10447000089585B7806885BF85B7806885BF089532
:10448000089508950C9440220C9417070E94392235
:104490008BE19CE20E94172E0E9441220C94422242
:1044A00081E008950C945022089508950E949F2D54
:1044B0000E94D30B0E94C11680E00E94C91C0E947A
:1044C000322E0E9464140E9425160C9444229F925E
:1044D000AF92BF92CF92DF92EF92FF920F931F9312
:1044E000CF93DF93CDB7DEB72A970FB6F894DEBF30
:1044F0000FBECDBF0E9454220E9455220E940D0C77
:10450000C82E81110E9413223FE3A32E32E0B32E66
:1045100010E000E0902E802F0E94CC0BE82EF501D9
:10452000F1905F01F81609F469C08091A00281FD45
:104530000E94D20B8F2D8E25F82FF170FF2E80FD5B
:1045400056C081FD56C082FF59C092E0D92E24E0AA
:10455000F22E0E945222882399F0DE829F82EF2061
:1045600081E009F480E088870E94A82D8160782F7F
:104570009A8789874E815F8168858A850E94242376
:10458000F801E15CFD4F8081F826F0820E940F1552
:104590000E943516182F81110E9426220E949D1E0E
:1045A000C11001C011110E94661D0E94220E0E94BE
:1045B000C22190913E028917A9F10E94C2218093E5
:1045C0003E022A960FB6F894DEBF0FBECDBFDF9134
:1045D000CF911F910F91FF90EF90DF90CF90BF9000
:1045E000AF909F900C94EA0901E010E093CFD12C9A
:1045F000B0CFDD24D39482E0F82EABCF013011058B
:1046000099F78FEF89838A831B820E94A82D81608E
:10461000782F9D838C8349815A816B818D810E9483
:104620002423B4CF2A960FB6F894DEBF0FBECDBFB9
:10463000DF91CF911F910F91FF90EF90DF90CF907E
:10464000BF90AF909F900895DF92EF92FF920F93EB
:104650001F93CF93DF93CDB7DEB72B970FB6F894A8
:10466000DEBF0FBECDBF7A878B87F42E052F162FA6
:10467000E72ED82E61110E94992B1E821D827E2D5D
:10468000EC82DD824F2D502F612F8D2D9E812B9638
:104690000FB6F894DEBF0FBECDBFDF91CF911F9153
:1046A0000F91FF90EF90DF900C94E928FC0180813E
:1046B00091810C94262BCF93C82F882309F447C0EF
:1046C0008CEF8C0F813AA0F46C2F80912401909193
:1046D00025010E94E02C882329F08C2F0E945B2B5F
:1046E0000E94B82B8C2F0E94542BCF910C94B82B86
:1046F00080E28C0F883048F4C77081E001C0880FD9
:10470000CA95EAF70E947C2BF0CFEBE5EC0FE33083
:1047100040F4F0E0E153FE4F808190E0CF910C94A3
:10472000E721E8E5EC0FE73150F4F0E0EE0FFF1F72
:10473000EF55FE4F80819181CF910C94FD21C03FB8
:1047400030F08C2F0E941C0DCF910C94070ECF914E
:104750000895882361F19CEF980F913A20F40E940C
:104760005B2B0C94B82B90E2980F983050F4877024
:1047700091E001C0990F8A95EAF7892F0E94822B58
:10478000F0CF9BE5980F933020F490E080E00C94FC
:10479000E72198E5980F973120F490E080E00C94A1
:1047A000FD21803F20F00E94840D0C94070E089597
:1047B0001F93CF93DF93182FEB010E945B23209769
:1047C00031F4812FDF91CF911F910C94A9238FE9B0
:1047D0009FE00197F1F700C000002197F0CF70E053
:1047E00060E0893311F460E570E00C94D8238823ED
:1047F00021F00E947C2B0C94B82B0895882321F083
:104800000E94822B0C94B82B0895BF92CF92DF9216
:10481000EF92FF920F931F93CF93DF936C01D62FEC
:10482000C72FFC011281058102950F700E94722B27
:10483000E82E8823A1F0E12E112389F08C2F807FB0
:10484000803429F080E28D0FE12C883040F082E046
:104850000E94032C0E94722B91E0E82EE926BC2EC8
:10486000B2949FE0B922FBE0FB1598F1EB2DF0E04C
:10487000ED53F94C0C9402360C2F0F70C07F11F0E1
:104880000295007F1123A9F0002359F080E28D0FDB
:10489000883010F0D11109C0802F0E947C2B0E941B
:1048A000B82B8D2F0E945B2314C0802F0E948C2B6D
:1048B000F6CF8D2F0E94A923002359F080E28D0F9F
:1048C000883010F0D1112CC0802F0E94822B0E94C2
:1048D000B82B2B2D2850330B2430310520F40E94A7
:1048E000C2210E94EA09EE2009F490C10E946E2BB9
:1048F00080FD8CC1F60112820E94682B0E94F32970
:10490000C6010E9427260E94682BDF91CF911F913C
:104910000F91FF90EF90DF90CF90BF900C94142AEE
:10492000802F0E94922BD3CF2C2F2F70F22EC07F7E
:10493000C03219F0F29480EFF822DD2369F0D13013
:1049400049F1112391F1002351F1F601858180FF96
:10495000A8CF8F70858323C0112381F0011106C079
:104960000E949F2B8F290E94F723B3CF0130C1F7FC
:104970000E949F2B8F290E94A52BABCF011106C04F
:104980000E94AE2B8F2D0E94FE23A3CF013009F48D
:10499000A0CFF6CF112329F0063008F09ACF8F2D43
:1049A000E2CF053008F095CFEDCF002359F3D9338E
:1049B00049F4FFEF27EE33E0F15020403040E1F7BB
:1049C00000C000008D2F0E94A92383CF8C2F8695D5
:1049D0008695837069F0813009F07BCF8D2F9C2FF5
:1049E0009370111102C090E080E00E94FD2171CF10
:1049F0008D2F9C2F9370111102C090E080E00E94D7
:104A0000E72167CF8D2F112339F00E941C0D0E94E2
:104A1000070E0E94070E5DCF0E94840DFACF8C2FE7
:104A2000837009F041C0111154CF4D2F4295469526
:104A30004770440F440F0D2F0F7010E030E020E05E
:104A4000042E04C0000F111F221F331F0A94D2F737
:104A500060E070E0CB01D4FF0FC06FE070E080E059
:104A600090E004C0660F771F881F991F4A95D2F700
:104A70006095709580959095C695C695C370602B8E
:104A8000712B822B932BC23049F058F4C13019F0AE
:104A90000E94A7291ECF0E9495291BCF0E94B929E9
:104AA00018CF0E94932915CF8695112311F08C2FD2
:104AB0008170882309F40DCF4D2F4295469547709C
:104AC000440F440F0D2F0F7010E030E020E0042E53
:104AD00004C0000F111F221F331F0A94D2F760E099
:104AE00070E0CB01D4FF0FC06FE070E080E090E099
:104AF00004C0660F771F881F991F4A95D2F76095EB
:104B0000709580959095C695C695C370602B712B56
:104B1000822B932BC23049F058F4C13019F00E9417
:104B20006A2AD7CE0E94582AD4CE0E947C2AD1CE9F
:104B30000E94CD29CECECF70112329F08C2F0E9458
:104B4000F3298D2F10CF8D2F0E94FE238C2F0E94D2
:104B5000142ABFCED23F89F160F4D03FC9F0D13FD3
:104B600029F1112309F442C001119BCE8C2F8F71C2
:104B700021C0D33F39F1D43FA1F7112369F1CF719F
:104B80008C2F0E94F32963E08C2F0E94EE2BA1CE84
:104B9000112341F0053008F09CCE8C2F8F710E94BC
:104BA000372A97CE063008F094CEF7CF8C2F8F712E
:104BB000112369F20E94F3298CCE8C2F8F7111235F
:104BC000C9F3C5CF112329F08C2F8F710E94DE29E4
:104BD00080CE0E94D9297DCE81E00E94032C023034
:104BE00008F477CE82E00E94032C73CE002359F0A4
:104BF000D93309F0E7CE8FEF97EEE3E08150904094
:104C0000E040E1F7DDCE8C2F8F71A1CFDF91CF9106
:104C10001F910F91FF90EF90DF90CF90BF9008957C
:104C20000F931F93CF93DF93EC01688179818A8181
:104C30000E94302B8C010E948E2A0E949229B8017A
:104C4000CE01DF91CF911F910F910C940524CF934A
:104C5000DF93EC018B819C81892B29F088819981DC
:104C600089238F3F59F4DF91CF910895CE010E949F
:104C70001026CE01DF91CF910C94E907CE010E945E
:104C8000BA088111F3CF0E94722B882361F38A81C5
:104C9000882349F382E0DF91CF910C94032C882381
:104CA00021F00E948C2B0C94B82B0895882321F0BE
:104CB0000E94922B0C94B82B089590E080E00E9403
:104CC000E72190E080E00E94FD210E94992B0E9444
:104CD0009C2B0E94B82B0E942E0F0C94070E0E9452
:104CE000622B0C945D260E94892B0C946F26E92F71
:104CF000E295EF70E250EE3070F4F0E0E153F94CE1
:104D00000C940236803F19F020F4883E20F481E0B4
:104D10000895843FE1F380E00895883EC0F3813F29
:104D2000D1F7F5CF93FB882780F908950E94262BB1
:104D30000C947726CF93DF9300D000D00F92CDB79D
:104D4000DEB70F900F900F900F900F90DF91CF91E3
:104D50000895CF93DF9300D000D000D0CDB7DEB759
:104D600026960FB6F894DEBF0FBECDBFDF91CF9170
:104D700008951F93CF93DF93C0914E0216E0809168
:104D80004F028C1304C0DF91CF911F910895D0E0A2
:104D90001C9FF0011D9FF00D1124E05BFD4F408131
:104DA000518162817381848195810E94A926219617
:104DB000C770E5CF409180025091810260918202DC
:104DC0007091830280918402909185020C94A926AF
:104DD0001F93CF93DF9380918502807FA9F4809108
:104DE0008202882389F080914E02C0914F02609127
:104DF000800270918102A0918302B0918402D62F2B
:104E0000D72316E0C81304C0DF91CF911F910895F6
:104E100090E0109711F0DF3F19F401968770F2CF00
:104E2000189F9001199F300D1124F901E05BFD4F8F
:104E300041814713F2CF40814613EFCF42814111A8
:104E4000ECCF438154814A1B5B0B483C510528F74A
:104E5000809185028F70806180938502F901EB5A01
:104E6000FD4F80818F708061808380E892E00E9496
:104E70002726DF91CF911F910C94B926AF92BF9254
:104E8000CF92DF92EF92FF920F931F93CF93DF9316
:104E9000CDB7DEB761970FB6F894DEBF0FBECDBFBA
:104EA0008C0185E0F801DE011D9601900D928A9536
:104EB000E1F7F80140815181E28080E8C82E82E06C
:104EC000D82E60918302709184026115710509F4F6
:104ED00061C19091800220918102892F82238F3FAE
:104EE00009F458C1A380B480F0908202F501E61B5A
:104EF000F70BFF2009F4FCC080918502382F307F2A
:104F0000E83CF10508F0B2C0311179C0FE2C251340
:104F100023C0941321C0E1101FC08F708061809363
:104F200085020E94DA26C6010E942726809185020A
:104F3000F80185838F2D61960FB6F894DEBF0FBE02
:104F4000CDBFDF91CF911F910F91FF90EF90DF9038
:104F5000CF90BF90AF900895AB2829F0842F852380
:104F60008F3F09F033C180E0F82FF170DF2E80FF12
:104F70003CC080914E0220914F0236E0821315C052
:104F80004D875E878D859E850E94262B292F229531
:104F90002F702230F0F0243018F59F70F1F0F801F6
:104FA0009581907FD1F4D12C1EC090E0389FF00104
:104FB000399FF00D1124E05BFD4F6181651306C040
:104FC0006081641303C062816E110FC00196877007
:104FD000D5CF9F7011F0882331F3805E883018F3AD
:104FE000C8010E942726FD2CA5CFEE2009F4A2CFF0
:104FF00080918502816080938502F12C9BCF2513DF
:1050000006C0941304C0F801EE2009F48DC04D874A
:105010005E878D859E850E949626882319F1EE2055
:1050200009F180918502803270F0209180023091E8
:10503000810238872F831986BB86AA868C87CE018A
:1050400007960E94272686E0F801A0E8B2E00190CA
:105050000D928A95E1F70E94E8260E94DA26FF2445
:10506000F39468CFC8010E942726F9CF311113C0ED
:105070007A2DB98AA88A6E2D89890E949A2680E89D
:1050800092E00E94272686E0F60111928A95E9F7C0
:105090000E94DA26B2CF25130FC094130DC0E11081
:1050A0000BC0F8018583C8010E94272686E0F6011F
:1050B00011928A95E9F73ECF4D875E878D859E8553
:1050C0000E949626882371F2EE2061F2809185027B
:1050D000803208F4B8CF20918002309181023A8367
:1050E00029831B82BD82AC828E83CE010196A9CF1B
:1050F000E83CF10508F041C0FE2CEE2009F4B2CFE7
:1051000025132AC0941328C08091850280FD1BC0FE
:10511000982F907FC1F0F8018583903F31F0982F50
:10512000907F905F8F70892B8583C8010E9427260E
:1051300086E0F801A0E8B2E001900D928A95E1F7CF
:105140000E94DA26F7CE86E0F801A0E8B2E00190EE
:105150000D928A95E1F7EECE4D875E878D859E850F
:105160000E94962681116FCF809185028160809385
:105170008502C8010E942726DDCE7A2DB98AA88A29
:105180006E2D89890E949A2686E0F60111928A95F1
:10519000E9F7D6CFEE2009F465CF4D875E878D8580
:1051A0009E850E949626F82E882309F45BCF86E020
:1051B000F801A0E8B2E001900D928A95E1F780E84D
:1051C00092E00E9456230E94E826BACF81E08E2505
:1051D000CBCE1F93CF93DF93CDB7DEB72C970FB60F
:1051E000F894DEBF0FBECDBF4F83588769877A879B
:1051F0008B879C87CE0107960E943E27882369F003
:105200008A859B85892B39F04F815885842F85238A
:105210008F3F09F071C016E05FC086E0FE0137964F
:10522000DE01119601900D928A95E1F78A859B85A2
:10523000892B89F38F81988589238F3F61F3209192
:105240004F0230E0C90101968770992740914E02C4
:105250004817190671F40E94732610924F0210929B
:105260004E0286E0E0E8F2E0DF011D928A95E9F760
:10527000D2CF96E0929FD001939FB00D1124A05BF6
:10528000BD4FFE01319601900D929A95E1F7809302
:105290004F020E94B926BFCF819FC0011124805BBD
:1052A0009D4F0E943E278823E9F0E0914E021E9F09
:1052B000F0011124E05BFD4F4081518162817381D7
:1052C000848195810E94A92680914E0290E00196EA
:1052D0008770992780934E0280914E0290914F02E1
:1052E0008913DACF2C960FB6F894DEBF0FBECDBF70
:1052F000DF91CF911F91089569857A858B859C8573
:105300000E94A92688CF08950C9483290E9484299D
:1053100060938F0270939002809391029093920217
:105320000C945D2608950C9486290F931F93009189
:105330008F02109190022091910230919202602B85
:10534000712B822B932B1F910F910C9486290F9315
:105350001F9300918F021091900220919102309141
:10536000920260237123822393231F910F910C9447
:1053700086290F931F9300918F0210919002209124
:1053800091023091920260277127822793271F9103
:105390000F910C9486290C94E7060E94CB29609308
:1053A0008B0270938C0280938D0290938E020C94EA
:1053B0005D2660E070E0CB010C94CD290F931F9324
:1053C00041E050E060E070E08A019B0104C0000F02
:1053D000111F221F331F8A95D2F7C901B8011F91EF
:1053E0000F910C94CD290F931F9341E050E060E0A2
:1053F00070E004C0440F551F661F771F8A95D2F7CF
:1054000080918B0290918C02A0918D02B0918E02BE
:105410008A019B01082B192B2A2B3B2BC901B801B0
:105420001F910F910C94CD290F931F9341E050E0F1
:1054300060E070E004C0440F551F661F771F8A9517
:10544000D2F7CB01BA016095709580959095009147
:105450008B0210918C0220918D0230918E0260237C
:105460007123822393231F910F910C94CD290F93C5
:105470001F9341E050E060E070E004C0440F551F0E
:10548000661F771F8A95D2F780918B0290918C02CC
:10549000A0918D02B0918E028A019B0108271927E5
:1054A0002A273B27C901B8011F910F910C94CD29E0
:1054B0000F931F9300918B0210918C0220918D020B
:1054C00030918E02602B712B822B932B1F910F91A9
:1054D0000C94CD290F931F9300918B0210918C0295
:1054E00020918D0230918E026023712382239323B9
:1054F0001F910F910C94CD290F931F9300918B0254
:1055000010918C0220918D0230918E0260277127BC
:10551000822793271F910F910C94CD290895E92F8D
:10552000EE0F9E0F890F982F977041E001C0440F36
:105530009A95EAF786958695869595E0899FF0017C
:105540001124EA57FD4F30E020E070E05191DF0177
:105550001197CB01022E02C0969587950A94E2F727
:10556000817081958527842385278C932F5F3F4FFA
:105570002530310559F70895E92FEE0F9E0F890F59
:10558000982F977086958695869525E0829FF001E5
:105590001124EA57FD4F50E040E080E0219130E0D7
:1055A000092E02C0369527950A94E2F72170332719
:1055B000042E01C0220F0A94EAF7822B4F5F5F4F3F
:1055C0004530510559F70895BF92CF92DF92EF927F
:1055D000FF920F931F93CF93DF938C01C0908B02A8
:1055E000D0908C02E0908D02F0908E0280918F021C
:1055F00090919002A0919102B0919202C82AD92A6A
:10560000EA2AFB2ACFE1D0E0BC2ED701C6010C2E3E
:1056100004C0B695A795979587950A94D2F780FD13
:105620000EC0219788F7B12C8B2DDF91CF911F9160
:105630000F91FF90EF90DF90CF90BF900895B80149
:105640008C2F0E94F209019761F3EECFCF93DF9385
:10565000EC010E94E42ABE01DF91CF910C94F20983
:105660001F93CF93DF93EB0190914D02992331F07B
:10567000CB01DF91CF911F910C94262B882379F0D9
:10568000CB010E94E42A182F682FCE010E948F2A96
:10569000BE01812FDF91CF911F910C94F209CB01B4
:1056A0000E94BC2A182FF4CF682F8091240190917A
:1056B00025010C94162D682F8091240190912501CD
:1056C0000C94182D80912401909125010C941A2D91
:1056D0008091930285958595859508958091930293
:1056E0008770089590919302977081E009F480E0AB
:1056F000089580919F02089590919F02892B809335
:105700009F020895809590919F02982390939F0205
:10571000089510929F02089590919E02892B809384
:105720009E020895809590919E02982390939E02E8
:10573000089510929E02089510929D0208958091FE
:105740009402089508950C94A22B909194029817B6
:1057500021F0809394020C94A32B089580919402DD
:10576000882329F01092940280E00C94A32B0895D2
:10577000E0912401F091250180919F028083E091C6
:105780002401F0912501808190919E02892B8083D4
:10579000E0912401F0912501808190919D02892B57
:1057A000808390919402992381F0E0912401F091FB
:1057B00025018081892B808380912401909125018E
:1057C0000E94CE2C81110E94AE2B809124019091D9
:1057D00025010C94CE2108950C94EB2B98E0899F21
:1057E00090011124622B609393020E94F32980910F
:1057F00093028595859585950C94EC2B10929302D8
:1058000080E00C94EC2B90919302809589238093F7
:105810009302282F277071F4282F082E000C330BC9
:105820009217130639F08595859585950E94142A5F
:105830000C94FE2B089580E008956FEF7FEF90E0C9
:1058400080E00C948F3690E080E00E946B3621E07F
:105850008B3E9E4F09F020E0822F089582E090E079
:105860000C945D3683E090E00C945D36CF9384E039
:1058700090E00E945D36C82F81E290E00E945D3684
:10588000982F8C2FCF910895CF93C92F682F84E044
:1058900090E00E9471366C2F81E290E0CF910C94E1
:1058A0007136AB01BC018FE090E00C948336AB0104
:1058B000BC0183E190E00C94833660E070E0CB01A2
:1058C0000C94572C60E070E0CB010E94512C0C949A
:1058D0005D2C6BEE7EEF90E080E00E948F3660E002
:1058E00082E090E00E94713660E083E090E00E94E8
:1058F000713610928F0210929002109291021092C3
:10590000920260E084E090E00E94713660E081E203
:1059100090E00E94713660E085E090E00E94713670
:1059200060E086E090E00E9471366FEF87E090E0E3
:105930000E94713640E050E0BA0188E090E00E9499
:10594000833660E08DE090E00E94713640E050E0E8
:10595000BA0188E190E00E94833660E087E190E040
:105960000E94713640E050E0BA018CE190E00E9464
:10597000833660E080E290E00E94713640E050E0C3
:10598000BA0188E190E00E9483360C94622C0C945A
:10599000692C682F8EE090E00C9471369C012E5F8C
:1059A0003F4FAC01485F5F4F80E02417350709F493
:1059B0000895F90191919F019923B9F38F5FF5CF74
:1059C000662349F0FC01329608962191261729F0AA
:1059D000E817F907D1F780E0089581E008959C0168
:1059E000FC0132969FEF80E04191461751F09F3FB6
:1059F00019F4411101C0982F8F5F8630A9F79F3F9E
:105A000009F40895290F311D97FD3A95F901628334
:105A10000895FC01329608962191261303C0DF01F8
:105A200011971C92E817F907B9F708950C94EF2C19
:105A30000C94092D029626E0FC0111922A95E9F7B3
:105A40000895089508950C94222D8091D6048430F1
:105A500059F10E94232D80E00E94EA090E94C91397
:105A60001092A10288E190E020E40FB6F894A89586
:105A7000809360000FBE2093600083B7817F8460B5
:105A800083BF83B7816083BF7894889583B78E7F07
:105A900083BF0FB6F894A8958091600088618093C9
:105AA0006000109260000FBE089508950E94212D9D
:105AB0000E940D0C0E94552D80E00E94CC0B91E0BD
:105AC000811107C081E00E94CC0B91E0811101C0DF
:105AD00090E0892F089508950C946B2D0E947326F1
